{
  "contractName": "Deployable",
  "abi": [
    {
      "inputs": [],
      "stateMutability": "nonpayable",
      "type": "constructor"
    },
    {
      "anonymous": false,
      "inputs": [
        {
          "indexed": true,
          "internalType": "address",
          "name": "owner",
          "type": "address"
        },
        {
          "indexed": true,
          "internalType": "address",
          "name": "spender",
          "type": "address"
        },
        {
          "indexed": false,
          "internalType": "uint256",
          "name": "value",
          "type": "uint256"
        }
      ],
      "name": "Approval",
      "type": "event"
    },
    {
      "anonymous": false,
      "inputs": [
        {
          "indexed": true,
          "internalType": "address",
          "name": "previousOwner",
          "type": "address"
        },
        {
          "indexed": true,
          "internalType": "address",
          "name": "newOwner",
          "type": "address"
        }
      ],
      "name": "OwnershipTransferred",
      "type": "event"
    },
    {
      "anonymous": false,
      "inputs": [
        {
          "indexed": true,
          "internalType": "address",
          "name": "from",
          "type": "address"
        },
        {
          "indexed": true,
          "internalType": "address",
          "name": "to",
          "type": "address"
        },
        {
          "indexed": false,
          "internalType": "uint256",
          "name": "value",
          "type": "uint256"
        }
      ],
      "name": "Transfer",
      "type": "event"
    },
    {
      "inputs": [
        {
          "internalType": "address",
          "name": "owner",
          "type": "address"
        },
        {
          "internalType": "address",
          "name": "spender",
          "type": "address"
        }
      ],
      "name": "allowance",
      "outputs": [
        {
          "internalType": "uint256",
          "name": "",
          "type": "uint256"
        }
      ],
      "stateMutability": "view",
      "type": "function"
    },
    {
      "inputs": [
        {
          "internalType": "address",
          "name": "spender",
          "type": "address"
        },
        {
          "internalType": "uint256",
          "name": "amount",
          "type": "uint256"
        }
      ],
      "name": "approve",
      "outputs": [
        {
          "internalType": "bool",
          "name": "",
          "type": "bool"
        }
      ],
      "stateMutability": "nonpayable",
      "type": "function"
    },
    {
      "inputs": [
        {
          "internalType": "address",
          "name": "account",
          "type": "address"
        }
      ],
      "name": "balanceOf",
      "outputs": [
        {
          "internalType": "uint256",
          "name": "",
          "type": "uint256"
        }
      ],
      "stateMutability": "view",
      "type": "function"
    },
    {
      "inputs": [],
      "name": "decimals",
      "outputs": [
        {
          "internalType": "uint8",
          "name": "",
          "type": "uint8"
        }
      ],
      "stateMutability": "view",
      "type": "function"
    },
    {
      "inputs": [
        {
          "internalType": "address",
          "name": "spender",
          "type": "address"
        },
        {
          "internalType": "uint256",
          "name": "subtractedValue",
          "type": "uint256"
        }
      ],
      "name": "decreaseAllowance",
      "outputs": [
        {
          "internalType": "bool",
          "name": "",
          "type": "bool"
        }
      ],
      "stateMutability": "nonpayable",
      "type": "function"
    },
    {
      "inputs": [
        {
          "internalType": "address",
          "name": "spender",
          "type": "address"
        },
        {
          "internalType": "uint256",
          "name": "addedValue",
          "type": "uint256"
        }
      ],
      "name": "increaseAllowance",
      "outputs": [
        {
          "internalType": "bool",
          "name": "",
          "type": "bool"
        }
      ],
      "stateMutability": "nonpayable",
      "type": "function"
    },
    {
      "inputs": [],
      "name": "initialSupply",
      "outputs": [
        {
          "internalType": "uint256",
          "name": "",
          "type": "uint256"
        }
      ],
      "stateMutability": "view",
      "type": "function"
    },
    {
      "inputs": [],
      "name": "name",
      "outputs": [
        {
          "internalType": "string",
          "name": "",
          "type": "string"
        }
      ],
      "stateMutability": "view",
      "type": "function"
    },
    {
      "inputs": [],
      "name": "owner",
      "outputs": [
        {
          "internalType": "address",
          "name": "",
          "type": "address"
        }
      ],
      "stateMutability": "view",
      "type": "function"
    },
    {
      "inputs": [],
      "name": "renounceOwnership",
      "outputs": [],
      "stateMutability": "nonpayable",
      "type": "function"
    },
    {
      "inputs": [
        {
          "internalType": "address",
          "name": "account",
          "type": "address"
        }
      ],
      "name": "setAddressAsBlacklisted",
      "outputs": [],
      "stateMutability": "nonpayable",
      "type": "function"
    },
    {
      "inputs": [
        {
          "internalType": "address",
          "name": "account",
          "type": "address"
        }
      ],
      "name": "setAddressAsWhitelisted",
      "outputs": [],
      "stateMutability": "nonpayable",
      "type": "function"
    },
    {
      "inputs": [],
      "name": "symbol",
      "outputs": [
        {
          "internalType": "string",
          "name": "",
          "type": "string"
        }
      ],
      "stateMutability": "view",
      "type": "function"
    },
    {
      "inputs": [],
      "name": "totalSupply",
      "outputs": [
        {
          "internalType": "uint256",
          "name": "",
          "type": "uint256"
        }
      ],
      "stateMutability": "view",
      "type": "function"
    },
    {
      "inputs": [
        {
          "internalType": "address",
          "name": "recipient",
          "type": "address"
        },
        {
          "internalType": "uint256",
          "name": "amount",
          "type": "uint256"
        }
      ],
      "name": "transfer",
      "outputs": [
        {
          "internalType": "bool",
          "name": "",
          "type": "bool"
        }
      ],
      "stateMutability": "nonpayable",
      "type": "function"
    },
    {
      "inputs": [
        {
          "internalType": "address",
          "name": "sender",
          "type": "address"
        },
        {
          "internalType": "address",
          "name": "recipient",
          "type": "address"
        },
        {
          "internalType": "uint256",
          "name": "amount",
          "type": "uint256"
        }
      ],
      "name": "transferFrom",
      "outputs": [
        {
          "internalType": "bool",
          "name": "",
          "type": "bool"
        }
      ],
      "stateMutability": "nonpayable",
      "type": "function"
    },
    {
      "inputs": [
        {
          "internalType": "address",
          "name": "newOwner",
          "type": "address"
        }
      ],
      "name": "transferOwnership",
      "outputs": [],
      "stateMutability": "nonpayable",
      "type": "function"
    }
  ],
  "bytecode": "0x60806040523480156200001157600080fd5b5062000032620000266200005360201b60201c565b6200005b60201b60201c565b6200004d33681eaed3f134171800006200011f60201b60201c565b620004d8565b600033905090565b60008060009054906101000a900473ffffffffffffffffffffffffffffffffffffffff169050816000806101000a81548173ffffffffffffffffffffffffffffffffffffffff021916908373ffffffffffffffffffffffffffffffffffffffff1602179055508173ffffffffffffffffffffffffffffffffffffffff168173ffffffffffffffffffffffffffffffffffffffff167f8be0079c531659141344cd1fd0a4f28419497f9722a3daafe3b4186f6b6457e060405160405180910390a35050565b600073ffffffffffffffffffffffffffffffffffffffff168273ffffffffffffffffffffffffffffffffffffffff16141562000192576040517f08c379a00000000000000000000000000000000000000000000000000000000081526004016200018990620003a0565b60405180910390fd5b620001ae81600454620002bc60201b62000abc1790919060201c565b6004819055506200020d81600160008573ffffffffffffffffffffffffffffffffffffffff1673ffffffffffffffffffffffffffffffffffffffff16815260200190815260200160002054620002bc60201b62000abc1790919060201c565b600160008473ffffffffffffffffffffffffffffffffffffffff1673ffffffffffffffffffffffffffffffffffffffff168152602001908152602001600020819055508173ffffffffffffffffffffffffffffffffffffffff16600073ffffffffffffffffffffffffffffffffffffffff167fddf252ad1be2c89b69c2b068fc378daa952ba7f163c4a11628f55a4df523b3ef83604051620002b09190620003c2565b60405180910390a35050565b6000808284620002cd9190620003f0565b90508381101562000315576040517f08c379a00000000000000000000000000000000000000000000000000000000081526004016200030c906200037e565b60405180910390fd5b8091505092915050565b60006200032e601b83620003df565b91506200033b8262000486565b602082019050919050565b600062000355601f83620003df565b91506200036282620004af565b602082019050919050565b62000378816200044d565b82525050565b6000602082019050818103600083015262000399816200031f565b9050919050565b60006020820190508181036000830152620003bb8162000346565b9050919050565b6000602082019050620003d960008301846200036d565b92915050565b600082825260208201905092915050565b6000620003fd826200044d565b91506200040a836200044d565b9250827fffffffffffffffffffffffffffffffffffffffffffffffffffffffffffffffff0382111562000442576200044162000457565b5b828201905092915050565b6000819050919050565b7f4e487b7100000000000000000000000000000000000000000000000000000000600052601160045260246000fd5b7f536166654d6174683a206164646974696f6e206f766572666c6f770000000000600082015250565b7f45524332303a206d696e7420746f20746865207a65726f206164647265737300600082015250565b611a4d80620004e86000396000f3fe608060405234801561001057600080fd5b506004361061010b5760003560e01c80635adbbf8b116100a257806395d89b411161007157806395d89b41146102a8578063a457c2d7146102c6578063a9059cbb146102f6578063dd62ed3e14610326578063f2fde38b146103565761010b565b80635adbbf8b1461023457806370a0823114610250578063715018a6146102805780638da5cb5b1461028a5761010b565b806323b872dd116100de57806323b872dd14610198578063313ce567146101c8578063378dc3dc146101e657806339509351146102045761010b565b806306fdde0314610110578063095ea7b31461012e5780630c9ba72f1461015e57806318160ddd1461017a575b600080fd5b610118610372565b604051610125919061147f565b60405180910390f35b6101486004803603810190610143919061127c565b6103ab565b6040516101559190611464565b60405180910390f35b610178600480360381019061017391906111bc565b6103c9565b005b6101826104a0565b60405161018f91906115a1565b60405180910390f35b6101b260048036038101906101ad9190611229565b6104aa565b6040516101bf9190611464565b60405180910390f35b6101d0610583565b6040516101dd91906115bc565b60405180910390f35b6101ee610588565b6040516101fb91906115a1565b60405180910390f35b61021e6004803603810190610219919061127c565b610595565b60405161022b9190611464565b60405180910390f35b61024e600480360381019061024991906111bc565b610648565b005b61026a600480360381019061026591906111bc565b61071f565b60405161027791906115a1565b60405180910390f35b610288610768565b005b6102926107f0565b60405161029f9190611449565b60405180910390f35b6102b0610819565b6040516102bd919061147f565b60405180910390f35b6102e060048036038101906102db919061127c565b610852565b6040516102ed9190611464565b60405180910390f35b610310600480360381019061030b919061127c565b61091f565b60405161031d9190611464565b60405180910390f35b610340600480360381019061033b91906111e9565b61093d565b60405161034d91906115a1565b60405180910390f35b610370600480360381019061036b91906111bc565b6109c4565b005b6040518060400160405280600681526020017f44454d4f5245000000000000000000000000000000000000000000000000000081525081565b60006103bf6103b8610b1a565b8484610b22565b6001905092915050565b6103d1610b1a565b73ffffffffffffffffffffffffffffffffffffffff166103ef6107f0565b73ffffffffffffffffffffffffffffffffffffffff1614610445576040517f08c379a000000000000000000000000000000000000000000000000000000000815260040161043c90611521565b60405180910390fd5b6001600260008373ffffffffffffffffffffffffffffffffffffffff1673ffffffffffffffffffffffffffffffffffffffff16815260200190815260200160002060006101000a81548160ff02191690831515021790555050565b6000600454905090565b60006104b7848484610ced565b610578846104c3610b1a565b610573856040518060600160405280602881526020016119cb60289139600360008b73ffffffffffffffffffffffffffffffffffffffff1673ffffffffffffffffffffffffffffffffffffffff1681526020019081526020016000206000610529610b1a565b73ffffffffffffffffffffffffffffffffffffffff1673ffffffffffffffffffffffffffffffffffffffff1681526020019081526020016000205461106a9092919063ffffffff16565b610b22565b600190509392505050565b601281565b681eaed3f1341718000081565b600061063e6105a2610b1a565b8461063985600360006105b3610b1a565b73ffffffffffffffffffffffffffffffffffffffff1673ffffffffffffffffffffffffffffffffffffffff16815260200190815260200160002060008973ffffffffffffffffffffffffffffffffffffffff1673ffffffffffffffffffffffffffffffffffffffff16815260200190815260200160002054610abc90919063ffffffff16565b610b22565b6001905092915050565b610650610b1a565b73ffffffffffffffffffffffffffffffffffffffff1661066e6107f0565b73ffffffffffffffffffffffffffffffffffffffff16146106c4576040517f08c379a00000000000000000000000000000000000000000000000000000000081526004016106bb90611521565b60405180910390fd5b6000600260008373ffffffffffffffffffffffffffffffffffffffff1673ffffffffffffffffffffffffffffffffffffffff16815260200190815260200160002060006101000a81548160ff02191690831515021790555050565b6000600160008373ffffffffffffffffffffffffffffffffffffffff1673ffffffffffffffffffffffffffffffffffffffff168152602001908152602001600020549050919050565b610770610b1a565b73ffffffffffffffffffffffffffffffffffffffff1661078e6107f0565b73ffffffffffffffffffffffffffffffffffffffff16146107e4576040517f08c379a00000000000000000000000000000000000000000000000000000000081526004016107db90611521565b60405180910390fd5b6107ee60006110ce565b565b60008060009054906101000a900473ffffffffffffffffffffffffffffffffffffffff16905090565b6040518060400160405280600381526020017f445245000000000000000000000000000000000000000000000000000000000081525081565b600061091561085f610b1a565b84610910856040518060600160405280602581526020016119f36025913960036000610889610b1a565b73ffffffffffffffffffffffffffffffffffffffff1673ffffffffffffffffffffffffffffffffffffffff16815260200190815260200160002060008a73ffffffffffffffffffffffffffffffffffffffff1673ffffffffffffffffffffffffffffffffffffffff1681526020019081526020016000205461106a9092919063ffffffff16565b610b22565b6001905092915050565b600061093361092c610b1a565b8484610ced565b6001905092915050565b6000600360008473ffffffffffffffffffffffffffffffffffffffff1673ffffffffffffffffffffffffffffffffffffffff16815260200190815260200160002060008373ffffffffffffffffffffffffffffffffffffffff1673ffffffffffffffffffffffffffffffffffffffff16815260200190815260200160002054905092915050565b6109cc610b1a565b73ffffffffffffffffffffffffffffffffffffffff166109ea6107f0565b73ffffffffffffffffffffffffffffffffffffffff1614610a40576040517f08c379a0000000000000000000000000000000000000000000000000000000008152600401610a3790611521565b60405180910390fd5b600073ffffffffffffffffffffffffffffffffffffffff168173ffffffffffffffffffffffffffffffffffffffff161415610ab0576040517f08c379a0000000000000000000000000000000000000000000000000000000008152600401610aa7906114c1565b60405180910390fd5b610ab9816110ce565b50565b6000808284610acb91906115f3565b905083811015610b10576040517f08c379a0000000000000000000000000000000000000000000000000000000008152600401610b0790611501565b60405180910390fd5b8091505092915050565b600033905090565b600073ffffffffffffffffffffffffffffffffffffffff168373ffffffffffffffffffffffffffffffffffffffff161415610b92576040517f08c379a0000000000000000000000000000000000000000000000000000000008152600401610b8990611561565b60405180910390fd5b600073ffffffffffffffffffffffffffffffffffffffff168273ffffffffffffffffffffffffffffffffffffffff161415610c02576040517f08c379a0000000000000000000000000000000000000000000000000000000008152600401610bf9906114e1565b60405180910390fd5b80600360008573ffffffffffffffffffffffffffffffffffffffff1673ffffffffffffffffffffffffffffffffffffffff16815260200190815260200160002060008473ffffffffffffffffffffffffffffffffffffffff1673ffffffffffffffffffffffffffffffffffffffff168152602001908152602001600020819055508173ffffffffffffffffffffffffffffffffffffffff168373ffffffffffffffffffffffffffffffffffffffff167f8c5be1e5ebec7d5bd14f71427d1e84f3dd0314c0f7b2291e5b200ac8c7c3b92583604051610ce091906115a1565b60405180910390a3505050565b600073ffffffffffffffffffffffffffffffffffffffff168373ffffffffffffffffffffffffffffffffffffffff161415610d5d576040517f08c379a0000000000000000000000000000000000000000000000000000000008152600401610d5490611541565b60405180910390fd5b600073ffffffffffffffffffffffffffffffffffffffff168273ffffffffffffffffffffffffffffffffffffffff161415610dcd576040517f08c379a0000000000000000000000000000000000000000000000000000000008152600401610dc4906114a1565b60405180910390fd5b60001515600260008573ffffffffffffffffffffffffffffffffffffffff1673ffffffffffffffffffffffffffffffffffffffff16815260200190815260200160002060009054906101000a900460ff161515148015610e7d575060001515600260008473ffffffffffffffffffffffffffffffffffffffff1673ffffffffffffffffffffffffffffffffffffffff16815260200190815260200160002060009054906101000a900460ff161515145b610ebc576040517f08c379a0000000000000000000000000000000000000000000000000000000008152600401610eb390611581565b60405180910390fd5b610f28816040518060600160405280602681526020016119a560269139600160008773ffffffffffffffffffffffffffffffffffffffff1673ffffffffffffffffffffffffffffffffffffffff1681526020019081526020016000205461106a9092919063ffffffff16565b600160008573ffffffffffffffffffffffffffffffffffffffff1673ffffffffffffffffffffffffffffffffffffffff16815260200190815260200160002081905550610fbd81600160008573ffffffffffffffffffffffffffffffffffffffff1673ffffffffffffffffffffffffffffffffffffffff16815260200190815260200160002054610abc90919063ffffffff16565b600160008473ffffffffffffffffffffffffffffffffffffffff1673ffffffffffffffffffffffffffffffffffffffff168152602001908152602001600020819055508173ffffffffffffffffffffffffffffffffffffffff168373ffffffffffffffffffffffffffffffffffffffff167fddf252ad1be2c89b69c2b068fc378daa952ba7f163c4a11628f55a4df523b3ef8360405161105d91906115a1565b60405180910390a3505050565b60008383111582906110b2576040517f08c379a00000000000000000000000000000000000000000000000000000000081526004016110a9919061147f565b60405180910390fd5b50600083856110c19190611649565b9050809150509392505050565b60008060009054906101000a900473ffffffffffffffffffffffffffffffffffffffff169050816000806101000a81548173ffffffffffffffffffffffffffffffffffffffff021916908373ffffffffffffffffffffffffffffffffffffffff1602179055508173ffffffffffffffffffffffffffffffffffffffff168173ffffffffffffffffffffffffffffffffffffffff167f8be0079c531659141344cd1fd0a4f28419497f9722a3daafe3b4186f6b6457e060405160405180910390a35050565b6000813590506111a181611976565b92915050565b6000813590506111b68161198d565b92915050565b6000602082840312156111d2576111d1611734565b5b60006111e084828501611192565b91505092915050565b60008060408385031215611200576111ff611734565b5b600061120e85828601611192565b925050602061121f85828601611192565b9150509250929050565b60008060006060848603121561124257611241611734565b5b600061125086828701611192565b935050602061126186828701611192565b9250506040611272868287016111a7565b9150509250925092565b6000806040838503121561129357611292611734565b5b60006112a185828601611192565b92505060206112b2858286016111a7565b9150509250929050565b6112c58161167d565b82525050565b6112d48161168f565b82525050565b60006112e5826115d7565b6112ef81856115e2565b93506112ff8185602086016116d2565b61130881611739565b840191505092915050565b60006113206023836115e2565b915061132b8261174a565b604082019050919050565b60006113436026836115e2565b915061134e82611799565b604082019050919050565b60006113666022836115e2565b9150611371826117e8565b604082019050919050565b6000611389601b836115e2565b915061139482611837565b602082019050919050565b60006113ac6020836115e2565b91506113b782611860565b602082019050919050565b60006113cf6025836115e2565b91506113da82611889565b604082019050919050565b60006113f26024836115e2565b91506113fd826118d8565b604082019050919050565b6000611415602a836115e2565b915061142082611927565b604082019050919050565b611434816116bb565b82525050565b611443816116c5565b82525050565b600060208201905061145e60008301846112bc565b92915050565b600060208201905061147960008301846112cb565b92915050565b6000602082019050818103600083015261149981846112da565b905092915050565b600060208201905081810360008301526114ba81611313565b9050919050565b600060208201905081810360008301526114da81611336565b9050919050565b600060208201905081810360008301526114fa81611359565b9050919050565b6000602082019050818103600083015261151a8161137c565b9050919050565b6000602082019050818103600083015261153a8161139f565b9050919050565b6000602082019050818103600083015261155a816113c2565b9050919050565b6000602082019050818103600083015261157a816113e5565b9050919050565b6000602082019050818103600083015261159a81611408565b9050919050565b60006020820190506115b6600083018461142b565b92915050565b60006020820190506115d1600083018461143a565b92915050565b600081519050919050565b600082825260208201905092915050565b60006115fe826116bb565b9150611609836116bb565b9250827fffffffffffffffffffffffffffffffffffffffffffffffffffffffffffffffff0382111561163e5761163d611705565b5b828201905092915050565b6000611654826116bb565b915061165f836116bb565b92508282101561167257611671611705565b5b828203905092915050565b60006116888261169b565b9050919050565b60008115159050919050565b600073ffffffffffffffffffffffffffffffffffffffff82169050919050565b6000819050919050565b600060ff82169050919050565b60005b838110156116f05780820151818401526020810190506116d5565b838111156116ff576000848401525b50505050565b7f4e487b7100000000000000000000000000000000000000000000000000000000600052601160045260246000fd5b600080fd5b6000601f19601f8301169050919050565b7f45524332303a207472616e7366657220746f20746865207a65726f206164647260008201527f6573730000000000000000000000000000000000000000000000000000000000602082015250565b7f4f776e61626c653a206e6577206f776e657220697320746865207a65726f206160008201527f6464726573730000000000000000000000000000000000000000000000000000602082015250565b7f45524332303a20617070726f766520746f20746865207a65726f20616464726560008201527f7373000000000000000000000000000000000000000000000000000000000000602082015250565b7f536166654d6174683a206164646974696f6e206f766572666c6f770000000000600082015250565b7f4f776e61626c653a2063616c6c6572206973206e6f7420746865206f776e6572600082015250565b7f45524332303a207472616e736665722066726f6d20746865207a65726f20616460008201527f6472657373000000000000000000000000000000000000000000000000000000602082015250565b7f45524332303a20617070726f76652066726f6d20746865207a65726f2061646460008201527f7265737300000000000000000000000000000000000000000000000000000000602082015250565b7f426c61636b6c6973746564206164647265737365732063616e277420646f206260008201527f7579206f722073656c6c00000000000000000000000000000000000000000000602082015250565b61197f8161167d565b811461198a57600080fd5b50565b611996816116bb565b81146119a157600080fd5b5056fe45524332303a207472616e7366657220616d6f756e7420657863656564732062616c616e636545524332303a207472616e7366657220616d6f756e74206578636565647320616c6c6f77616e636545524332303a2064656372656173656420616c6c6f77616e63652062656c6f77207a65726fa264697066735822122016ceada20805188f4d0cdfe95f6c554a6ef5ac3a09452e6b2406891a90c4e9a264736f6c63430008060033",
  "immutableReferences": {},
  "source": "// SPDX-License-Identifier: Unlicensed\r\n\r\n/**   __\r\n *  _|__\\_  ______\r\n * | @@@@ \\ $$$$$$\\             ____________\r\n * | @@@@ \\     $$\\            |$$$$$$$$$$$$\\\r\n * | @@@@ \\    $$ \\            |$$$       $$\\\r\n * | @@@@ \\   $$   \\______                   ________________________________\r\n * | @@@@ \\  $$    $$$$$$$\\    $   $ $$ $$  |$$$$$ $$$$$$   $   $$$$$$ $$$$$$\\\r\n * | @@@@ \\ $$     $$         $$$  $ $$ $$  |$$      $$    $$$    $$   $$    \\\r\n * | @@@@ \\  $$$   $$$$$$$|  $$ $$   $$     |$$$$$   $$   $$ $$   $$   $$$$  \\\r\n * | @@@@ \\   $$$  $$       $$$$$$$  $$   $$    $$   $$   $$$$$   $$   $$    \\\r\n * | @@@@ \\    $$$ $$$$$$$ $$     $$ $$$$$$$ $$$$$   $$  $$   $$  $$   $$$$$$\\\r\n * |______\\     $$$$ _____|  $_____________$\r\n */\r\n\r\npragma solidity ^0.8.6;\r\n\r\nimport \"@openzeppelin/contracts/utils/Context.sol\";\r\nimport \"@openzeppelin/contracts/access/Ownable.sol\";\r\nimport \"@openzeppelin/contracts/token/ERC20/IERC20.sol\";\r\n\r\nlibrary SafeMath {\r\n\r\n    function add(uint256 a, uint256 b) internal pure returns (uint256) {\r\n\r\n        uint256 c = a + b;\r\n        require(c >= a, \"SafeMath: addition overflow\");\r\n\r\n        return c;\r\n    }\r\n\r\n    function sub(uint256 a, uint256 b) internal pure returns (uint256) {\r\n\r\n        return sub(a, b, \"SafeMath: subtraction overflow\");\r\n    }\r\n\r\n    function sub(uint256 a, uint256 b, string memory errorMessage) internal pure returns (uint256) {\r\n\r\n        require(b <= a, errorMessage);\r\n        uint256 c = a - b;\r\n\r\n        return c;\r\n    }\r\n\r\n    function mul(uint256 a, uint256 b) internal pure returns (uint256) {\r\n\r\n        if (a == 0) {\r\n            return 0;\r\n        }\r\n\r\n        uint256 c = a * b;\r\n        require(c / a == b, \"SafeMath: multiplication overflow\");\r\n\r\n        return c;\r\n    }\r\n\r\n    function div(uint256 a, uint256 b) internal pure returns (uint256) {\r\n\r\n        return div(a, b, \"SafeMath: division by zero\");\r\n    }\r\n\r\n    function div(uint256 a, uint256 b, string memory errorMessage) internal pure returns (uint256) {\r\n\r\n        require(b > 0, errorMessage);\r\n        uint256 c = a / b;\r\n\r\n        return c;\r\n    }\r\n\r\n    function mod(uint256 a, uint256 b) internal pure returns (uint256) {\r\n\r\n        return mod(a, b, \"SafeMath: modulo by zero\");\r\n    }\r\n\r\n    function mod(uint256 a, uint256 b, string memory errorMessage) internal pure returns (uint256) {\r\n\r\n        require(b != 0, errorMessage);\r\n        return a % b;\r\n    }\r\n}\r\n\r\ncontract ERC20 is Context, IERC20, Ownable {\r\n\r\n    using SafeMath for uint256;\r\n\r\n    mapping (address => uint256) private _balances;\r\n    mapping (address => bool) private _isBlacklisted;\r\n\r\n    mapping (address => mapping (address => uint256)) private _allowances;\r\n\r\n    uint256 private _totalSupply;\r\n\r\n    function totalSupply() public override view returns (uint256) {\r\n\r\n        return _totalSupply;\r\n    }\r\n\r\n    function balanceOf(address account) public override view returns (uint256) {\r\n\r\n        return _balances[account];\r\n    }\r\n\r\n    function transfer(address recipient, uint256 amount) public override returns (bool) {\r\n\r\n        _transfer(_msgSender(), recipient, amount);\r\n        return true;\r\n    }\r\n\r\n    function allowance(address owner, address spender) public override view returns (uint256) {\r\n\r\n        return _allowances[owner][spender];\r\n    }\r\n\r\n    function approve(address spender, uint256 amount) public override returns (bool) {\r\n\r\n        _approve(_msgSender(), spender, amount);\r\n        return true;\r\n    }\r\n\r\n    function transferFrom(address sender, address recipient, uint256 amount) public override returns (bool) {\r\n\r\n        _transfer(sender, recipient, amount);\r\n        _approve(sender, _msgSender(), _allowances[sender][_msgSender()].sub(amount, \"ERC20: transfer amount exceeds allowance\"));\r\n        return true;\r\n    }\r\n\r\n    function increaseAllowance(address spender, uint256 addedValue) public returns (bool) {\r\n\r\n        _approve(_msgSender(), spender, _allowances[_msgSender()][spender].add(addedValue));\r\n        return true;\r\n    }\r\n\r\n    function decreaseAllowance(address spender, uint256 subtractedValue) public returns (bool) {\r\n\r\n        _approve(_msgSender(), spender, _allowances[_msgSender()][spender].sub(subtractedValue, \"ERC20: decreased allowance below zero\"));\r\n        return true;\r\n    }\r\n\r\n    function _transfer(address sender, address recipient, uint256 amount) internal {\r\n\r\n        require(sender != address(0), \"ERC20: transfer from the zero address\");\r\n        require(recipient != address(0), \"ERC20: transfer to the zero address\");\r\n\r\n        // Addresses in Blacklist can't do buy or sell.\r\n        require(_isBlacklisted[sender] == false && _isBlacklisted[recipient] == false, \"Blacklisted addresses can't do buy or sell\");\r\n\r\n        _balances[sender] = _balances[sender].sub(amount, \"ERC20: transfer amount exceeds balance\");\r\n        _balances[recipient] = _balances[recipient].add(amount);\r\n        emit Transfer(sender, recipient, amount);\r\n    }\r\n\r\n    function _mint(address account, uint256 amount) internal {\r\n\r\n        require(account != address(0), \"ERC20: mint to the zero address\");\r\n\r\n        _totalSupply = _totalSupply.add(amount);\r\n        _balances[account] = _balances[account].add(amount);\r\n        emit Transfer(address(0), account, amount);\r\n    }\r\n\r\n    function _burn(address account, uint256 amount) internal {\r\n\r\n        require(account != address(0), \"ERC20: burn from the zero address\");\r\n\r\n        _balances[account] = _balances[account].sub(amount, \"ERC20: burn amount exceeds balance\");\r\n        _totalSupply = _totalSupply.sub(amount);\r\n        emit Transfer(account, address(0), amount);\r\n    }\r\n\r\n    function _approve(address owner, address spender, uint256 amount) internal {\r\n\r\n        require(owner != address(0), \"ERC20: approve from the zero address\");\r\n        require(spender != address(0), \"ERC20: approve to the zero address\");\r\n\r\n        _allowances[owner][spender] = amount;\r\n        emit Approval(owner, spender, amount);\r\n    }\r\n\r\n    function _burnFrom(address account, uint256 amount) internal {\r\n\r\n        _burn(account, amount);\r\n        _approve(account, _msgSender(), _allowances[account][_msgSender()].sub(amount, \"ERC20: burn amount exceeds allowance\"));\r\n    }\r\n\r\n    function setAddressAsBlacklisted(address account) public onlyOwner {\r\n        _isBlacklisted[account] = true;\r\n    }\r\n\r\n    function setAddressAsWhitelisted(address account) public onlyOwner {\r\n        _isBlacklisted[account] = false;\r\n    }\r\n}\r\n\r\ncontract Deployable is ERC20 {\r\n\r\n    string constant public name = \"DEMORE\";\r\n    string constant public symbol = \"DRE\";\r\n    uint8 constant public decimals = 18;\r\n    uint256 constant public initialSupply = 566 * 10**18;\r\n\r\n    constructor () {\r\n\r\n        _mint(msg.sender, initialSupply);\r\n    }\r\n}\r\n",
  "sourcePath": "F:\\OngoingJobs\\00.Cory\\Real-Estate-Presale\\contracts\\OpenZeppelin-EstateToken.sol",
  "compiler": {
    "name": "solc",
    "version": "0.8.6+commit.11564f7e.Emscripten.clang"
  },
  "schemaVersion": "3.4.2",
  "updatedAt": "2021-07-28T17:59:15.907Z",
  "devdoc": {
    "kind": "dev",
    "methods": {
      "allowance(address,address)": {
        "details": "Returns the remaining number of tokens that `spender` will be allowed to spend on behalf of `owner` through {transferFrom}. This is zero by default. This value changes when {approve} or {transferFrom} are called."
      },
      "approve(address,uint256)": {
        "details": "Sets `amount` as the allowance of `spender` over the caller's tokens. Returns a boolean value indicating whether the operation succeeded. IMPORTANT: Beware that changing an allowance with this method brings the risk that someone may use both the old and the new allowance by unfortunate transaction ordering. One possible solution to mitigate this race condition is to first reduce the spender's allowance to 0 and set the desired value afterwards: https://github.com/ethereum/EIPs/issues/20#issuecomment-263524729 Emits an {Approval} event."
      },
      "balanceOf(address)": {
        "details": "Returns the amount of tokens owned by `account`."
      },
      "owner()": {
        "details": "Returns the address of the current owner."
      },
      "renounceOwnership()": {
        "details": "Leaves the contract without owner. It will not be possible to call `onlyOwner` functions anymore. Can only be called by the current owner. NOTE: Renouncing ownership will leave the contract without an owner, thereby removing any functionality that is only available to the owner."
      },
      "totalSupply()": {
        "details": "Returns the amount of tokens in existence."
      },
      "transfer(address,uint256)": {
        "details": "Moves `amount` tokens from the caller's account to `recipient`. Returns a boolean value indicating whether the operation succeeded. Emits a {Transfer} event."
      },
      "transferFrom(address,address,uint256)": {
        "details": "Moves `amount` tokens from `sender` to `recipient` using the allowance mechanism. `amount` is then deducted from the caller's allowance. Returns a boolean value indicating whether the operation succeeded. Emits a {Transfer} event."
      },
      "transferOwnership(address)": {
        "details": "Transfers ownership of the contract to a new account (`newOwner`). Can only be called by the current owner."
      }
    },
    "version": 1
  },
  "userdoc": {
    "kind": "user",
    "methods": {},
    "version": 1
  }
}