{
  "contractName": "ProfitDistribution",
  "abi": [
    {
      "inputs": [
        {
          "internalType": "address",
          "name": "wallet",
          "type": "address"
        },
        {
          "internalType": "address[]",
          "name": "holders",
          "type": "address[]"
        },
        {
          "internalType": "contract IERC20",
          "name": "token",
          "type": "address"
        }
      ],
      "stateMutability": "nonpayable",
      "type": "constructor"
    },
    {
      "anonymous": false,
      "inputs": [
        {
          "indexed": true,
          "internalType": "address",
          "name": "previousOwner",
          "type": "address"
        },
        {
          "indexed": true,
          "internalType": "address",
          "name": "newOwner",
          "type": "address"
        }
      ],
      "name": "OwnershipTransferred",
      "type": "event"
    },
    {
      "anonymous": false,
      "inputs": [
        {
          "indexed": false,
          "internalType": "address",
          "name": "holder",
          "type": "address"
        },
        {
          "indexed": false,
          "internalType": "uint256",
          "name": "amount",
          "type": "uint256"
        }
      ],
      "name": "TransferUSDT",
      "type": "event"
    },
    {
      "inputs": [],
      "name": "_wallet",
      "outputs": [
        {
          "internalType": "address",
          "name": "",
          "type": "address"
        }
      ],
      "stateMutability": "view",
      "type": "function"
    },
    {
      "inputs": [],
      "name": "isOwner",
      "outputs": [
        {
          "internalType": "bool",
          "name": "",
          "type": "bool"
        }
      ],
      "stateMutability": "view",
      "type": "function"
    },
    {
      "inputs": [],
      "name": "owner",
      "outputs": [
        {
          "internalType": "address",
          "name": "",
          "type": "address"
        }
      ],
      "stateMutability": "view",
      "type": "function"
    },
    {
      "inputs": [],
      "name": "renounceOwnership",
      "outputs": [],
      "stateMutability": "nonpayable",
      "type": "function"
    },
    {
      "inputs": [
        {
          "internalType": "address",
          "name": "newOwner",
          "type": "address"
        }
      ],
      "name": "transferOwnership",
      "outputs": [],
      "stateMutability": "nonpayable",
      "type": "function"
    },
    {
      "inputs": [],
      "name": "distrubuteProfit",
      "outputs": [],
      "stateMutability": "nonpayable",
      "type": "function"
    }
  ],
  "bytecode": "0x608060405273ba6670261a05b8504e8ab9c45d97a8ed42573822600160006101000a81548173ffffffffffffffffffffffffffffffffffffffff021916908373ffffffffffffffffffffffffffffffffffffffff1602179055503480156200006657600080fd5b5060405162001a4538038062001a4583398181016040528101906200008c91906200049f565b60006200009e6200030d60201b60201c565b9050806000806101000a81548173ffffffffffffffffffffffffffffffffffffffff021916908373ffffffffffffffffffffffffffffffffffffffff1602179055508073ffffffffffffffffffffffffffffffffffffffff16600073ffffffffffffffffffffffffffffffffffffffff167f8be0079c531659141344cd1fd0a4f28419497f9722a3daafe3b4186f6b6457e060405160405180910390a350600073ffffffffffffffffffffffffffffffffffffffff168373ffffffffffffffffffffffffffffffffffffffff161415620001af576040517f08c379a0000000000000000000000000000000000000000000000000000000008152600401620001a6906200058f565b60405180910390fd5b6000825111620001f6576040517f08c379a0000000000000000000000000000000000000000000000000000000008152600401620001ed90620005b1565b60405180910390fd5b600073ffffffffffffffffffffffffffffffffffffffff168173ffffffffffffffffffffffffffffffffffffffff16141562000269576040517f08c379a00000000000000000000000000000000000000000000000000000000081526004016200026090620005d3565b60405180910390fd5b82600260006101000a81548173ffffffffffffffffffffffffffffffffffffffff021916908373ffffffffffffffffffffffffffffffffffffffff1602179055508160039080519060200190620002c292919062000315565b5080600460006101000a81548173ffffffffffffffffffffffffffffffffffffffff021916908373ffffffffffffffffffffffffffffffffffffffff16021790555050505062000851565b600033905090565b82805482825590600052602060002090810192821562000391579160200282015b82811115620003905782518260006101000a81548173ffffffffffffffffffffffffffffffffffffffff021916908373ffffffffffffffffffffffffffffffffffffffff1602179055509160200191906001019062000336565b5b509050620003a09190620003a4565b5090565b5b80821115620003bf576000816000905550600101620003a5565b5090565b6000620003da620003d4846200061e565b620005f5565b905080838252602082019050828560208602820111156200040057620003ff62000710565b5b60005b858110156200043457816200041988826200043e565b84526020840193506020830192505060018101905062000403565b5050509392505050565b6000815190506200044f816200081d565b92915050565b600082601f8301126200046d576200046c6200070b565b5b81516200047f848260208601620003c3565b91505092915050565b600081519050620004998162000837565b92915050565b600080600060608486031215620004bb57620004ba6200071a565b5b6000620004cb868287016200043e565b935050602084015167ffffffffffffffff811115620004ef57620004ee62000715565b5b620004fd8682870162000455565b9250506040620005108682870162000488565b9150509250925092565b6000620005296030836200064d565b9150620005368262000730565b604082019050919050565b6000620005506027836200064d565b91506200055d826200077f565b604082019050919050565b600062000577602f836200064d565b91506200058482620007ce565b604082019050919050565b60006020820190508181036000830152620005aa816200051a565b9050919050565b60006020820190508181036000830152620005cc8162000541565b9050919050565b60006020820190508181036000830152620005ee8162000568565b9050919050565b60006200060162000614565b90506200060f8282620006a6565b919050565b6000604051905090565b600067ffffffffffffffff8211156200063c576200063b620006dc565b5b602082029050602081019050919050565b600082825260208201905092915050565b60006200066b8262000686565b9050919050565b60006200067f826200065e565b9050919050565b600073ffffffffffffffffffffffffffffffffffffffff82169050919050565b620006b1826200071f565b810181811067ffffffffffffffff82111715620006d357620006d2620006dc565b5b80604052505050565b7f4e487b7100000000000000000000000000000000000000000000000000000000600052604160045260246000fd5b600080fd5b600080fd5b600080fd5b600080fd5b6000601f19601f8301169050919050565b7f4572726f723a2057616c6c657420616464726573732063616e2774206265207460008201527f6865207a65726f20616464726573732100000000000000000000000000000000602082015250565b7f4572726f723a2053686f756c64206b656570206174206c65617374206f6e652060008201527f686f6c6465722100000000000000000000000000000000000000000000000000602082015250565b7f4572726f723a20546f6b656e20616464726573732063616e277420626520746860008201527f65207a65726f2041646472657373210000000000000000000000000000000000602082015250565b62000828816200065e565b81146200083457600080fd5b50565b620008428162000672565b81146200084e57600080fd5b50565b6111e480620008616000396000f3fe608060405234801561001057600080fd5b50600436106100625760003560e01c8063610757e414610067578063715018a6146100855780638da5cb5b1461008f5780638f32d59b146100ad5780639ea9556d146100cb578063f2fde38b146100d5575b600080fd5b61006f6100f1565b60405161007c9190610d6c565b60405180910390f35b61008d610117565b005b61009761021c565b6040516100a49190610d6c565b60405180910390f35b6100b5610245565b6040516100c29190610de7565b60405180910390f35b6100d36102a3565b005b6100ef60048036038101906100ea9190610c07565b6103ca565b005b600260009054906101000a900473ffffffffffffffffffffffffffffffffffffffff1681565b61011f610245565b61015e576040517f08c379a000000000000000000000000000000000000000000000000000000000815260040161015590610e64565b60405180910390fd5b600073ffffffffffffffffffffffffffffffffffffffff1660008054906101000a900473ffffffffffffffffffffffffffffffffffffffff1673ffffffffffffffffffffffffffffffffffffffff167f8be0079c531659141344cd1fd0a4f28419497f9722a3daafe3b4186f6b6457e060405160405180910390a360008060006101000a81548173ffffffffffffffffffffffffffffffffffffffff021916908373ffffffffffffffffffffffffffffffffffffffff160217905550565b60008060009054906101000a900473ffffffffffffffffffffffffffffffffffffffff16905090565b60008060009054906101000a900473ffffffffffffffffffffffffffffffffffffffff1673ffffffffffffffffffffffffffffffffffffffff1661028761041d565b73ffffffffffffffffffffffffffffffffffffffff1614905090565b6102ab610245565b6102ea576040517f08c379a00000000000000000000000000000000000000000000000000000000081526004016102e190610e64565b60405180910390fd5b600160009054906101000a900473ffffffffffffffffffffffffffffffffffffffff1673ffffffffffffffffffffffffffffffffffffffff166370a08231600260009054906101000a900473ffffffffffffffffffffffffffffffffffffffff166040518263ffffffff1660e01b81526004016103679190610d6c565b60206040518083038186803b15801561037f57600080fd5b505afa158015610393573d6000803e3d6000fd5b505050506040513d601f19601f820116820180604052508101906103b79190610c61565b6005819055506103c8600554610425565b565b6103d2610245565b610411576040517f08c379a000000000000000000000000000000000000000000000000000000000815260040161040890610e64565b60405180910390fd5b61041a816108b9565b50565b600033905090565b6000600460009054906101000a900473ffffffffffffffffffffffffffffffffffffffff1673ffffffffffffffffffffffffffffffffffffffff166318160ddd6040518163ffffffff1660e01b815260040160206040518083038186803b15801561048f57600080fd5b505afa1580156104a3573d6000803e3d6000fd5b505050506040513d601f19601f820116820180604052508101906104c79190610c61565b9050600082905060005b6003805490508110156108b3576000610528600383815481106104f7576104f661105d565b5b9060005260206000200160009054906101000a900473ffffffffffffffffffffffffffffffffffffffff16856109e6565b9050600160038054905061053c9190610ed1565b82141561071557600160009054906101000a900473ffffffffffffffffffffffffffffffffffffffff1673ffffffffffffffffffffffffffffffffffffffff166323b872dd600260009054906101000a900473ffffffffffffffffffffffffffffffffffffffff16600385815481106105b8576105b761105d565b5b9060005260206000200160009054906101000a900473ffffffffffffffffffffffffffffffffffffffff166105f6858a610b1b90919063ffffffff16565b6040518463ffffffff1660e01b815260040161061493929190610d87565b602060405180830381600087803b15801561062e57600080fd5b505af1158015610642573d6000803e3d6000fd5b505050506040513d601f19601f820116820180604052508101906106669190610c34565b5061067a8186610b1b90919063ffffffff16565b836106859190610ed1565b92507f251c06b9677024082309c3da041208107c0b0dc0cafd5e77ab12be896cd5c238600383815481106106bc576106bb61105d565b5b9060005260206000200160009054906101000a900473ffffffffffffffffffffffffffffffffffffffff166106fa8388610b1b90919063ffffffff16565b604051610708929190610dbe565b60405180910390a161089f565b600160009054906101000a900473ffffffffffffffffffffffffffffffffffffffff1673ffffffffffffffffffffffffffffffffffffffff166323b872dd600260009054906101000a900473ffffffffffffffffffffffffffffffffffffffff166003858154811061078a5761078961105d565b5b9060005260206000200160009054906101000a900473ffffffffffffffffffffffffffffffffffffffff16866040518463ffffffff1660e01b81526004016107d493929190610d87565b602060405180830381600087803b1580156107ee57600080fd5b505af1158015610802573d6000803e3d6000fd5b505050506040513d601f19601f820116820180604052508101906108269190610c34565b507f251c06b9677024082309c3da041208107c0b0dc0cafd5e77ab12be896cd5c2386003838154811061085c5761085b61105d565b5b9060005260206000200160009054906101000a900473ffffffffffffffffffffffffffffffffffffffff1684604051610896929190610dbe565b60405180910390a15b5080806108ab90610fb6565b9150506104d1565b50505050565b600073ffffffffffffffffffffffffffffffffffffffff168173ffffffffffffffffffffffffffffffffffffffff161415610929576040517f08c379a000000000000000000000000000000000000000000000000000000000815260040161092090610e24565b60405180910390fd5b8073ffffffffffffffffffffffffffffffffffffffff1660008054906101000a900473ffffffffffffffffffffffffffffffffffffffff1673ffffffffffffffffffffffffffffffffffffffff167f8be0079c531659141344cd1fd0a4f28419497f9722a3daafe3b4186f6b6457e060405160405180910390a3806000806101000a81548173ffffffffffffffffffffffffffffffffffffffff021916908373ffffffffffffffffffffffffffffffffffffffff16021790555050565b60008073ffffffffffffffffffffffffffffffffffffffff168373ffffffffffffffffffffffffffffffffffffffff161415610a57576040517f08c379a0000000000000000000000000000000000000000000000000000000008152600401610a4e90610e44565b60405180910390fd5b6000600460009054906101000a900473ffffffffffffffffffffffffffffffffffffffff1673ffffffffffffffffffffffffffffffffffffffff166370a08231856040518263ffffffff1660e01b8152600401610ab49190610d6c565b60206040518083038186803b158015610acc57600080fd5b505afa158015610ae0573d6000803e3d6000fd5b505050506040513d601f19601f82011682018060405250810190610b049190610c61565b90508083610b129190610ea0565b91505092915050565b6000610b5d83836040518060400160405280601a81526020017f536166654d6174683a206469766973696f6e206279207a65726f000000000000815250610b65565b905092915050565b60008083118290610bac576040517f08c379a0000000000000000000000000000000000000000000000000000000008152600401610ba39190610e02565b60405180910390fd5b5060008385610bbb9190610ea0565b9050809150509392505050565b600081359050610bd781611169565b92915050565b600081519050610bec81611180565b92915050565b600081519050610c0181611197565b92915050565b600060208284031215610c1d57610c1c61108c565b5b6000610c2b84828501610bc8565b91505092915050565b600060208284031215610c4a57610c4961108c565b5b6000610c5884828501610bdd565b91505092915050565b600060208284031215610c7757610c7661108c565b5b6000610c8584828501610bf2565b91505092915050565b610c9781610f4d565b82525050565b610ca681610f05565b82525050565b610cb581610f17565b82525050565b6000610cc682610e84565b610cd08185610e8f565b9350610ce0818560208601610f83565b610ce981611091565b840191505092915050565b6000610d01602683610e8f565b9150610d0c826110a2565b604082019050919050565b6000610d24603083610e8f565b9150610d2f826110f1565b604082019050919050565b6000610d47602083610e8f565b9150610d5282611140565b602082019050919050565b610d6681610f43565b82525050565b6000602082019050610d816000830184610c9d565b92915050565b6000606082019050610d9c6000830186610c8e565b610da96020830185610c8e565b610db66040830184610d5d565b949350505050565b6000604082019050610dd36000830185610c9d565b610de06020830184610d5d565b9392505050565b6000602082019050610dfc6000830184610cac565b92915050565b60006020820190508181036000830152610e1c8184610cbb565b905092915050565b60006020820190508181036000830152610e3d81610cf4565b9050919050565b60006020820190508181036000830152610e5d81610d17565b9050919050565b60006020820190508181036000830152610e7d81610d3a565b9050919050565b600081519050919050565b600082825260208201905092915050565b6000610eab82610f43565b9150610eb683610f43565b925082610ec657610ec561102e565b5b828204905092915050565b6000610edc82610f43565b9150610ee783610f43565b925082821015610efa57610ef9610fff565b5b828203905092915050565b6000610f1082610f23565b9050919050565b60008115159050919050565b600073ffffffffffffffffffffffffffffffffffffffff82169050919050565b6000819050919050565b6000610f5882610f5f565b9050919050565b6000610f6a82610f71565b9050919050565b6000610f7c82610f23565b9050919050565b60005b83811015610fa1578082015181840152602081019050610f86565b83811115610fb0576000848401525b50505050565b6000610fc182610f43565b91507fffffffffffffffffffffffffffffffffffffffffffffffffffffffffffffffff821415610ff457610ff3610fff565b5b600182019050919050565b7f4e487b7100000000000000000000000000000000000000000000000000000000600052601160045260246000fd5b7f4e487b7100000000000000000000000000000000000000000000000000000000600052601260045260246000fd5b7f4e487b7100000000000000000000000000000000000000000000000000000000600052603260045260246000fd5b600080fd5b6000601f19601f8301169050919050565b7f4f776e61626c653a206e6577206f776e657220697320746865207a65726f206160008201527f6464726573730000000000000000000000000000000000000000000000000000602082015250565b7f4572726f723a20486f6c64657220616464726573732063616e2774206265207460008201527f6865207a65726f20616464726573732100000000000000000000000000000000602082015250565b7f4f776e61626c653a2063616c6c6572206973206e6f7420746865206f776e6572600082015250565b61117281610f05565b811461117d57600080fd5b50565b61118981610f17565b811461119457600080fd5b50565b6111a081610f43565b81146111ab57600080fd5b5056fea264697066735822122095eb619188c670eddd13503baa590bb904ba5a99aaf17f2ad1891c740e3368b264736f6c63430008060033",
  "immutableReferences": {},
  "source": "// SPDX-License-Identifier: Unlicensed\r\n\r\n/**\r\n * $$$$$$$$$$$$$$$$$$$$$$$$$$$$$$$$$$$$$$&&&&&$$$$$$$$$$$ *\r\n *                                                        *\r\n * DDD  III  SS  TTT RRR  III BBB  U  U TTT III  OO  N  N *\r\n * D  D  I  S__   T  R  R  I  BBB  U  U  T   T  O  O NN N *\r\n * D  D  I     S  T  RRR   I  B  B U  U  T   T  O  O N NN *\r\n * DDD  III  SS   T  R  R III BBB   UU   T  TTT  OO  N  N *\r\n *                                                        *\r\n * $$$$$$$$$$$$$$$$$$$$$$$$$$$$$$$$$$$$$$$$$$$$$$$$$$$$$$ *\r\n */\r\n\r\n\r\npragma solidity 0.8.6;\r\n\r\nabstract contract Context {\r\n\r\n    constructor () { }\r\n\r\n    function _msgSender() internal view returns (address) {\r\n\r\n        return msg.sender;\r\n    }\r\n\r\n    function _msgData() internal view returns (bytes memory) {\r\n\r\n        this; // silence state mutability warning without generating bytecode - see https://github.com/ethereum/solidity/issues/2691\r\n        return msg.data;\r\n    }\r\n}\r\n\r\nabstract contract Ownable is Context {\r\n\r\n    address private _owner;\r\n\r\n    event OwnershipTransferred(address indexed previousOwner, address indexed newOwner);\r\n\r\n    constructor () {\r\n\r\n        address msgSender = _msgSender();\r\n        _owner = msgSender;\r\n        emit OwnershipTransferred(address(0), msgSender);\r\n    }\r\n\r\n    function owner() public view returns (address) {\r\n\r\n        return _owner;\r\n    }\r\n\r\n    modifier onlyOwner() {\r\n\r\n        require(isOwner(), \"Ownable: caller is not the owner\");\r\n        _;\r\n    }\r\n\r\n    function isOwner() public view returns (bool) {\r\n\r\n        return _msgSender() == _owner;\r\n    }\r\n\r\n    function renounceOwnership() public onlyOwner {\r\n\r\n        emit OwnershipTransferred(_owner, address(0));\r\n        _owner = address(0);\r\n    }\r\n\r\n    function transferOwnership(address newOwner) public onlyOwner {\r\n\r\n        _transferOwnership(newOwner);\r\n    }\r\n\r\n    function _transferOwnership(address newOwner) internal {\r\n\r\n        require(newOwner != address(0), \"Ownable: new owner is the zero address\");\r\n        emit OwnershipTransferred(_owner, newOwner);\r\n        _owner = newOwner;\r\n    }\r\n}\r\n\r\nlibrary Address {\r\n\r\n    function isContract(address account) internal view returns (bool) {\r\n\r\n        bytes32 codehash;\r\n        bytes32 accountHash = 0xc5d2460186f7233c927e7db2dcc703c0e500b653ca82273b7bfad8045d85a470;\r\n        // solhint-disable-next-line no-inline-assembly\r\n        assembly { codehash := extcodehash(account) }\r\n        return (codehash != accountHash && codehash != 0x0);\r\n    }\r\n\r\n    function toPayable(address account) internal pure returns (address) {\r\n\r\n        return address(uint160(account));\r\n    }\r\n\r\n    function sendValue(address payable recipient, uint256 amount) internal {\r\n\r\n        require(address(this).balance >= amount, \"Address: insufficient balance\");\r\n\r\n        // solhint-disable-next-line avoid-low-level-calls, avoid-call-value\r\n        (bool success, ) = recipient.call{ value: amount }(\"\");\r\n        require(success, \"Address: unable to send value, recipient may have reverted\");\r\n    }\r\n}\r\n\r\ninterface IERC20 {\r\n\r\n    function totalSupply() external view returns (uint256);\r\n    function balanceOf(address account) external view returns (uint256);\r\n    function transfer(address recipient, uint256 amount) external returns (bool);\r\n    function allowance(address owner, address spender) external view returns (uint256);\r\n    function approve(address spender, uint256 amount) external returns (bool);\r\n    function transferFrom(address sender, address recipient, uint256 amount) external returns (bool);\r\n    event Transfer(address indexed from, address indexed to, uint256 value);\r\n    event Approval(address indexed owner, address indexed spender, uint256 value);\r\n}\r\n\r\nlibrary SafeMath {\r\n\r\n    function add(uint256 a, uint256 b) internal pure returns (uint256) {\r\n\r\n        uint256 c = a + b;\r\n        require(c >= a, \"SafeMath: addition overflow\");\r\n\r\n        return c;\r\n    }\r\n\r\n    function sub(uint256 a, uint256 b) internal pure returns (uint256) {\r\n\r\n        return sub(a, b, \"SafeMath: subtraction overflow\");\r\n    }\r\n\r\n    function sub(uint256 a, uint256 b, string memory errorMessage) internal pure returns (uint256) {\r\n\r\n        require(b <= a, errorMessage);\r\n        uint256 c = a - b;\r\n\r\n        return c;\r\n    }\r\n\r\n    function mul(uint256 a, uint256 b) internal pure returns (uint256) {\r\n\r\n        if (a == 0) {\r\n            return 0;\r\n        }\r\n\r\n        uint256 c = a * b;\r\n        require(c / a == b, \"SafeMath: multiplication overflow\");\r\n\r\n        return c;\r\n    }\r\n\r\n\r\n    function div(uint256 a, uint256 b) internal pure returns (uint256) {\r\n\r\n        return div(a, b, \"SafeMath: division by zero\");\r\n    }\r\n\r\n    function div(uint256 a, uint256 b, string memory errorMessage) internal pure returns (uint256) {\r\n\r\n        require(b > 0, errorMessage);\r\n        uint256 c = a / b;\r\n        // assert(a == b * c + a % b); // There is no case in which this doesn't hold\r\n\r\n        return c;\r\n    }\r\n\r\n    function mod(uint256 a, uint256 b) internal pure returns (uint256) {\r\n\r\n        return mod(a, b, \"SafeMath: modulo by zero\");\r\n    }\r\n\r\n    function mod(uint256 a, uint256 b, string memory errorMessage) internal pure returns (uint256) {\r\n\r\n        require(b != 0, errorMessage);\r\n        return a % b;\r\n    }\r\n}\r\n\r\ncontract ProfitDistribution is Ownable {\r\n\r\n  using SafeMath for uint256;\r\n  using Address for address;\r\n\r\n  // Ethereum: 0xdac17f958d2ee523a2206206994597c13d831ec7\r\n  // Binance SC: 0x55d398326f99059fF775485246999027B3197955 (BSC_USD)\r\n  // BSC Testnet: 0xBA6670261a05b8504E8Ab9c45D97A8eD42573822\r\n  IERC20 private usdtToken = IERC20(0xBA6670261a05b8504E8Ab9c45D97A8eD42573822);\r\n\r\n  address public _wallet;\r\n  address[] private _holders;\r\n  IERC20 private _token;\r\n\r\n  uint256 availableBalance;\r\n\r\n  event TransferUSDT(address holder, uint256 amount);\r\n\r\n  constructor (address wallet, address[] memory holders, IERC20 token) {\r\n\r\n    require(wallet != address(0), \"Error: Wallet address can't be the zero address!\");\r\n    require(holders.length > 0, \"Error: Should keep at least one holder!\");\r\n    require(address(token) != address(0), \"Error: Token address can't be the zero Address!\");\r\n\r\n    _wallet = wallet;\r\n    _holders = holders;\r\n    _token = token;\r\n  }\r\n\r\n  function distrubuteProfit() public onlyOwner {\r\n\r\n    availableBalance = usdtToken.balanceOf(_wallet);\r\n\r\n    _distributeProfit(availableBalance);\r\n  }\r\n\r\n  function _distributeProfit(uint256 usdtAmount) internal {\r\n\r\n    uint256 totalSupply = _token.totalSupply();\r\n    uint256 remainBalance = usdtAmount;\r\n    for(uint256 i = 0; i < _holders.length ; i++) {\r\n\r\n      uint256 _rate = _getRating(_holders[i], totalSupply);\r\n      if(i == _holders.length - 1) {\r\n        usdtToken.transferFrom(payable(_wallet), payable(_holders[i]), usdtAmount.div(_rate));\r\n        remainBalance = remainBalance - usdtAmount.div(_rate);\r\n\r\n        emit TransferUSDT(_holders[i], usdtAmount.div(_rate));\r\n      } else {\r\n\r\n        usdtToken.transferFrom(payable(_wallet), payable(_holders[i]), remainBalance);\r\n\r\n        emit TransferUSDT(_holders[i], remainBalance);\r\n      }\r\n    }\r\n  }\r\n\r\n  function _getRating(address holder, uint256 totalSupply) internal view returns (uint256){\r\n\r\n    require(holder != address(0), \"Error: Holder address can't be the zero address!\");\r\n\r\n    uint256 tHolding = _token.balanceOf(holder);\r\n    return (totalSupply / tHolding);\r\n  }\r\n}\r\n",
  "sourcePath": "F:\\OngoingJobs\\00.Cory\\Real-Estate-Presale\\contracts\\OpenZeppelin-AutoDistribution.sol",
  "compiler": {
    "name": "solc",
    "version": "0.8.6+commit.11564f7e.Emscripten.clang"
  },
  "schemaVersion": "3.4.2",
  "updatedAt": "2021-07-28T17:59:15.823Z",
  "devdoc": {
    "kind": "dev",
    "methods": {},
    "version": 1
  },
  "userdoc": {
    "kind": "user",
    "methods": {},
    "version": 1
  }
}