{
  "contractName": "REALESTATEToken",
  "abi": [
    {
      "inputs": [],
      "stateMutability": "nonpayable",
      "type": "constructor"
    },
    {
      "anonymous": false,
      "inputs": [
        {
          "indexed": true,
          "internalType": "address",
          "name": "owner",
          "type": "address"
        },
        {
          "indexed": true,
          "internalType": "address",
          "name": "spender",
          "type": "address"
        },
        {
          "indexed": false,
          "internalType": "uint256",
          "name": "value",
          "type": "uint256"
        }
      ],
      "name": "Approval",
      "type": "event"
    },
    {
      "anonymous": false,
      "inputs": [
        {
          "indexed": true,
          "internalType": "address",
          "name": "previousOwner",
          "type": "address"
        },
        {
          "indexed": true,
          "internalType": "address",
          "name": "newOwner",
          "type": "address"
        }
      ],
      "name": "OwnershipTransferred",
      "type": "event"
    },
    {
      "anonymous": false,
      "inputs": [
        {
          "indexed": true,
          "internalType": "address",
          "name": "from",
          "type": "address"
        },
        {
          "indexed": true,
          "internalType": "address",
          "name": "to",
          "type": "address"
        },
        {
          "indexed": false,
          "internalType": "uint256",
          "name": "value",
          "type": "uint256"
        }
      ],
      "name": "Transfer",
      "type": "event"
    },
    {
      "inputs": [
        {
          "internalType": "address",
          "name": "owner",
          "type": "address"
        },
        {
          "internalType": "address",
          "name": "spender",
          "type": "address"
        }
      ],
      "name": "allowance",
      "outputs": [
        {
          "internalType": "uint256",
          "name": "",
          "type": "uint256"
        }
      ],
      "stateMutability": "view",
      "type": "function"
    },
    {
      "inputs": [
        {
          "internalType": "address",
          "name": "spender",
          "type": "address"
        },
        {
          "internalType": "uint256",
          "name": "amount",
          "type": "uint256"
        }
      ],
      "name": "approve",
      "outputs": [
        {
          "internalType": "bool",
          "name": "",
          "type": "bool"
        }
      ],
      "stateMutability": "nonpayable",
      "type": "function"
    },
    {
      "inputs": [
        {
          "internalType": "address",
          "name": "account",
          "type": "address"
        }
      ],
      "name": "balanceOf",
      "outputs": [
        {
          "internalType": "uint256",
          "name": "",
          "type": "uint256"
        }
      ],
      "stateMutability": "view",
      "type": "function"
    },
    {
      "inputs": [],
      "name": "decimals",
      "outputs": [
        {
          "internalType": "uint8",
          "name": "",
          "type": "uint8"
        }
      ],
      "stateMutability": "view",
      "type": "function"
    },
    {
      "inputs": [
        {
          "internalType": "address",
          "name": "spender",
          "type": "address"
        },
        {
          "internalType": "uint256",
          "name": "subtractedValue",
          "type": "uint256"
        }
      ],
      "name": "decreaseAllowance",
      "outputs": [
        {
          "internalType": "bool",
          "name": "",
          "type": "bool"
        }
      ],
      "stateMutability": "nonpayable",
      "type": "function"
    },
    {
      "inputs": [
        {
          "internalType": "address",
          "name": "spender",
          "type": "address"
        },
        {
          "internalType": "uint256",
          "name": "addedValue",
          "type": "uint256"
        }
      ],
      "name": "increaseAllowance",
      "outputs": [
        {
          "internalType": "bool",
          "name": "",
          "type": "bool"
        }
      ],
      "stateMutability": "nonpayable",
      "type": "function"
    },
    {
      "inputs": [],
      "name": "initialSupply",
      "outputs": [
        {
          "internalType": "uint256",
          "name": "",
          "type": "uint256"
        }
      ],
      "stateMutability": "view",
      "type": "function"
    },
    {
      "inputs": [],
      "name": "isOwner",
      "outputs": [
        {
          "internalType": "bool",
          "name": "",
          "type": "bool"
        }
      ],
      "stateMutability": "view",
      "type": "function"
    },
    {
      "inputs": [],
      "name": "name",
      "outputs": [
        {
          "internalType": "string",
          "name": "",
          "type": "string"
        }
      ],
      "stateMutability": "view",
      "type": "function"
    },
    {
      "inputs": [],
      "name": "owner",
      "outputs": [
        {
          "internalType": "address",
          "name": "",
          "type": "address"
        }
      ],
      "stateMutability": "view",
      "type": "function"
    },
    {
      "inputs": [],
      "name": "renounceOwnership",
      "outputs": [],
      "stateMutability": "nonpayable",
      "type": "function"
    },
    {
      "inputs": [
        {
          "internalType": "address",
          "name": "account",
          "type": "address"
        }
      ],
      "name": "setAddressAsBlacklisted",
      "outputs": [],
      "stateMutability": "nonpayable",
      "type": "function"
    },
    {
      "inputs": [
        {
          "internalType": "address",
          "name": "account",
          "type": "address"
        }
      ],
      "name": "setAddressAsWhitelisted",
      "outputs": [],
      "stateMutability": "nonpayable",
      "type": "function"
    },
    {
      "inputs": [],
      "name": "symbol",
      "outputs": [
        {
          "internalType": "string",
          "name": "",
          "type": "string"
        }
      ],
      "stateMutability": "view",
      "type": "function"
    },
    {
      "inputs": [],
      "name": "totalSupply",
      "outputs": [
        {
          "internalType": "uint256",
          "name": "",
          "type": "uint256"
        }
      ],
      "stateMutability": "view",
      "type": "function"
    },
    {
      "inputs": [
        {
          "internalType": "address",
          "name": "recipient",
          "type": "address"
        },
        {
          "internalType": "uint256",
          "name": "amount",
          "type": "uint256"
        }
      ],
      "name": "transfer",
      "outputs": [
        {
          "internalType": "bool",
          "name": "",
          "type": "bool"
        }
      ],
      "stateMutability": "nonpayable",
      "type": "function"
    },
    {
      "inputs": [
        {
          "internalType": "address",
          "name": "sender",
          "type": "address"
        },
        {
          "internalType": "address",
          "name": "recipient",
          "type": "address"
        },
        {
          "internalType": "uint256",
          "name": "amount",
          "type": "uint256"
        }
      ],
      "name": "transferFrom",
      "outputs": [
        {
          "internalType": "bool",
          "name": "",
          "type": "bool"
        }
      ],
      "stateMutability": "nonpayable",
      "type": "function"
    },
    {
      "inputs": [
        {
          "internalType": "address",
          "name": "newOwner",
          "type": "address"
        }
      ],
      "name": "transferOwnership",
      "outputs": [],
      "stateMutability": "nonpayable",
      "type": "function"
    }
  ],
  "bytecode": "0x60806040523480156200001157600080fd5b50600062000024620000e360201b60201c565b9050806000806101000a81548173ffffffffffffffffffffffffffffffffffffffff021916908373ffffffffffffffffffffffffffffffffffffffff1602179055508073ffffffffffffffffffffffffffffffffffffffff16600073ffffffffffffffffffffffffffffffffffffffff167f8be0079c531659141344cd1fd0a4f28419497f9722a3daafe3b4186f6b6457e060405160405180910390a350620000dd33681eaed3f13417180000620000eb60201b60201c565b620004a4565b600033905090565b600073ffffffffffffffffffffffffffffffffffffffff168273ffffffffffffffffffffffffffffffffffffffff1614156200015e576040517f08c379a000000000000000000000000000000000000000000000000000000000815260040162000155906200036c565b60405180910390fd5b6200017a816004546200028860201b62000ab11790919060201c565b600481905550620001d981600160008573ffffffffffffffffffffffffffffffffffffffff1673ffffffffffffffffffffffffffffffffffffffff168152602001908152602001600020546200028860201b62000ab11790919060201c565b600160008473ffffffffffffffffffffffffffffffffffffffff1673ffffffffffffffffffffffffffffffffffffffff168152602001908152602001600020819055508173ffffffffffffffffffffffffffffffffffffffff16600073ffffffffffffffffffffffffffffffffffffffff167fddf252ad1be2c89b69c2b068fc378daa952ba7f163c4a11628f55a4df523b3ef836040516200027c91906200038e565b60405180910390a35050565b6000808284620002999190620003bc565b905083811015620002e1576040517f08c379a0000000000000000000000000000000000000000000000000000000008152600401620002d8906200034a565b60405180910390fd5b8091505092915050565b6000620002fa601b83620003ab565b9150620003078262000452565b602082019050919050565b600062000321601f83620003ab565b91506200032e826200047b565b602082019050919050565b620003448162000419565b82525050565b600060208201905081810360008301526200036581620002eb565b9050919050565b60006020820190508181036000830152620003878162000312565b9050919050565b6000602082019050620003a5600083018462000339565b92915050565b600082825260208201905092915050565b6000620003c98262000419565b9150620003d68362000419565b9250827fffffffffffffffffffffffffffffffffffffffffffffffffffffffffffffffff038211156200040e576200040d62000423565b5b828201905092915050565b6000819050919050565b7f4e487b7100000000000000000000000000000000000000000000000000000000600052601160045260246000fd5b7f536166654d6174683a206164646974696f6e206f766572666c6f770000000000600082015250565b7f45524332303a206d696e7420746f20746865207a65726f206164647265737300600082015250565b611aab80620004b46000396000f3fe608060405234801561001057600080fd5b50600436106101165760003560e01c806370a08231116100a257806395d89b411161007157806395d89b41146102d1578063a457c2d7146102ef578063a9059cbb1461031f578063dd62ed3e1461034f578063f2fde38b1461037f57610116565b806370a082311461025b578063715018a61461028b5780638da5cb5b146102955780638f32d59b146102b357610116565b806323b872dd116100e957806323b872dd146101a3578063313ce567146101d3578063378dc3dc146101f1578063395093511461020f5780635adbbf8b1461023f57610116565b806306fdde031461011b578063095ea7b3146101395780630c9ba72f1461016957806318160ddd14610185575b600080fd5b61012361039b565b60405161013091906114dd565b60405180910390f35b610153600480360381019061014e91906112da565b6103d4565b60405161016091906114c2565b60405180910390f35b610183600480360381019061017e919061121a565b6103f2565b005b61018d610494565b60405161019a91906115ff565b60405180910390f35b6101bd60048036038101906101b89190611287565b61049e565b6040516101ca91906114c2565b60405180910390f35b6101db610577565b6040516101e8919061161a565b60405180910390f35b6101f961057c565b60405161020691906115ff565b60405180910390f35b610229600480360381019061022491906112da565b610589565b60405161023691906114c2565b60405180910390f35b6102596004803603810190610254919061121a565b61063c565b005b6102756004803603810190610270919061121a565b6106de565b60405161028291906115ff565b60405180910390f35b610293610727565b005b61029d61082c565b6040516102aa91906114a7565b60405180910390f35b6102bb610855565b6040516102c891906114c2565b60405180910390f35b6102d96108b3565b6040516102e691906114dd565b60405180910390f35b610309600480360381019061030491906112da565b6108ec565b60405161031691906114c2565b60405180910390f35b610339600480360381019061033491906112da565b6109b9565b60405161034691906114c2565b60405180910390f35b61036960048036038101906103649190611247565b6109d7565b60405161037691906115ff565b60405180910390f35b6103996004803603810190610394919061121a565b610a5e565b005b6040518060400160405280600681526020017f44454d4f5245000000000000000000000000000000000000000000000000000081525081565b60006103e86103e1610b0f565b8484610b17565b6001905092915050565b6103fa610855565b610439576040517f08c379a00000000000000000000000000000000000000000000000000000000081526004016104309061157f565b60405180910390fd5b6001600260008373ffffffffffffffffffffffffffffffffffffffff1673ffffffffffffffffffffffffffffffffffffffff16815260200190815260200160002060006101000a81548160ff02191690831515021790555050565b6000600454905090565b60006104ab848484610ce2565b61056c846104b7610b0f565b61056785604051806060016040528060288152602001611a2960289139600360008b73ffffffffffffffffffffffffffffffffffffffff1673ffffffffffffffffffffffffffffffffffffffff168152602001908152602001600020600061051d610b0f565b73ffffffffffffffffffffffffffffffffffffffff1673ffffffffffffffffffffffffffffffffffffffff1681526020019081526020016000205461105f9092919063ffffffff16565b610b17565b600190509392505050565b601281565b681eaed3f1341718000081565b6000610632610596610b0f565b8461062d85600360006105a7610b0f565b73ffffffffffffffffffffffffffffffffffffffff1673ffffffffffffffffffffffffffffffffffffffff16815260200190815260200160002060008973ffffffffffffffffffffffffffffffffffffffff1673ffffffffffffffffffffffffffffffffffffffff16815260200190815260200160002054610ab190919063ffffffff16565b610b17565b6001905092915050565b610644610855565b610683576040517f08c379a000000000000000000000000000000000000000000000000000000000815260040161067a9061157f565b60405180910390fd5b6000600260008373ffffffffffffffffffffffffffffffffffffffff1673ffffffffffffffffffffffffffffffffffffffff16815260200190815260200160002060006101000a81548160ff02191690831515021790555050565b6000600160008373ffffffffffffffffffffffffffffffffffffffff1673ffffffffffffffffffffffffffffffffffffffff168152602001908152602001600020549050919050565b61072f610855565b61076e576040517f08c379a00000000000000000000000000000000000000000000000000000000081526004016107659061157f565b60405180910390fd5b600073ffffffffffffffffffffffffffffffffffffffff1660008054906101000a900473ffffffffffffffffffffffffffffffffffffffff1673ffffffffffffffffffffffffffffffffffffffff167f8be0079c531659141344cd1fd0a4f28419497f9722a3daafe3b4186f6b6457e060405160405180910390a360008060006101000a81548173ffffffffffffffffffffffffffffffffffffffff021916908373ffffffffffffffffffffffffffffffffffffffff160217905550565b60008060009054906101000a900473ffffffffffffffffffffffffffffffffffffffff16905090565b60008060009054906101000a900473ffffffffffffffffffffffffffffffffffffffff1673ffffffffffffffffffffffffffffffffffffffff16610897610b0f565b73ffffffffffffffffffffffffffffffffffffffff1614905090565b6040518060400160405280600381526020017f445245000000000000000000000000000000000000000000000000000000000081525081565b60006109af6108f9610b0f565b846109aa85604051806060016040528060258152602001611a516025913960036000610923610b0f565b73ffffffffffffffffffffffffffffffffffffffff1673ffffffffffffffffffffffffffffffffffffffff16815260200190815260200160002060008a73ffffffffffffffffffffffffffffffffffffffff1673ffffffffffffffffffffffffffffffffffffffff1681526020019081526020016000205461105f9092919063ffffffff16565b610b17565b6001905092915050565b60006109cd6109c6610b0f565b8484610ce2565b6001905092915050565b6000600360008473ffffffffffffffffffffffffffffffffffffffff1673ffffffffffffffffffffffffffffffffffffffff16815260200190815260200160002060008373ffffffffffffffffffffffffffffffffffffffff1673ffffffffffffffffffffffffffffffffffffffff16815260200190815260200160002054905092915050565b610a66610855565b610aa5576040517f08c379a0000000000000000000000000000000000000000000000000000000008152600401610a9c9061157f565b60405180910390fd5b610aae816110c3565b50565b6000808284610ac09190611651565b905083811015610b05576040517f08c379a0000000000000000000000000000000000000000000000000000000008152600401610afc9061155f565b60405180910390fd5b8091505092915050565b600033905090565b600073ffffffffffffffffffffffffffffffffffffffff168373ffffffffffffffffffffffffffffffffffffffff161415610b87576040517f08c379a0000000000000000000000000000000000000000000000000000000008152600401610b7e906115bf565b60405180910390fd5b600073ffffffffffffffffffffffffffffffffffffffff168273ffffffffffffffffffffffffffffffffffffffff161415610bf7576040517f08c379a0000000000000000000000000000000000000000000000000000000008152600401610bee9061153f565b60405180910390fd5b80600360008573ffffffffffffffffffffffffffffffffffffffff1673ffffffffffffffffffffffffffffffffffffffff16815260200190815260200160002060008473ffffffffffffffffffffffffffffffffffffffff1673ffffffffffffffffffffffffffffffffffffffff168152602001908152602001600020819055508173ffffffffffffffffffffffffffffffffffffffff168373ffffffffffffffffffffffffffffffffffffffff167f8c5be1e5ebec7d5bd14f71427d1e84f3dd0314c0f7b2291e5b200ac8c7c3b92583604051610cd591906115ff565b60405180910390a3505050565b600073ffffffffffffffffffffffffffffffffffffffff168373ffffffffffffffffffffffffffffffffffffffff161415610d52576040517f08c379a0000000000000000000000000000000000000000000000000000000008152600401610d499061159f565b60405180910390fd5b600073ffffffffffffffffffffffffffffffffffffffff168273ffffffffffffffffffffffffffffffffffffffff161415610dc2576040517f08c379a0000000000000000000000000000000000000000000000000000000008152600401610db9906114ff565b60405180910390fd5b60001515600260008573ffffffffffffffffffffffffffffffffffffffff1673ffffffffffffffffffffffffffffffffffffffff16815260200190815260200160002060009054906101000a900460ff161515148015610e72575060001515600260008473ffffffffffffffffffffffffffffffffffffffff1673ffffffffffffffffffffffffffffffffffffffff16815260200190815260200160002060009054906101000a900460ff161515145b610eb1576040517f08c379a0000000000000000000000000000000000000000000000000000000008152600401610ea8906115df565b60405180910390fd5b610f1d81604051806060016040528060268152602001611a0360269139600160008773ffffffffffffffffffffffffffffffffffffffff1673ffffffffffffffffffffffffffffffffffffffff1681526020019081526020016000205461105f9092919063ffffffff16565b600160008573ffffffffffffffffffffffffffffffffffffffff1673ffffffffffffffffffffffffffffffffffffffff16815260200190815260200160002081905550610fb281600160008573ffffffffffffffffffffffffffffffffffffffff1673ffffffffffffffffffffffffffffffffffffffff16815260200190815260200160002054610ab190919063ffffffff16565b600160008473ffffffffffffffffffffffffffffffffffffffff1673ffffffffffffffffffffffffffffffffffffffff168152602001908152602001600020819055508173ffffffffffffffffffffffffffffffffffffffff168373ffffffffffffffffffffffffffffffffffffffff167fddf252ad1be2c89b69c2b068fc378daa952ba7f163c4a11628f55a4df523b3ef8360405161105291906115ff565b60405180910390a3505050565b60008383111582906110a7576040517f08c379a000000000000000000000000000000000000000000000000000000000815260040161109e91906114dd565b60405180910390fd5b50600083856110b691906116a7565b9050809150509392505050565b600073ffffffffffffffffffffffffffffffffffffffff168173ffffffffffffffffffffffffffffffffffffffff161415611133576040517f08c379a000000000000000000000000000000000000000000000000000000000815260040161112a9061151f565b60405180910390fd5b8073ffffffffffffffffffffffffffffffffffffffff1660008054906101000a900473ffffffffffffffffffffffffffffffffffffffff1673ffffffffffffffffffffffffffffffffffffffff167f8be0079c531659141344cd1fd0a4f28419497f9722a3daafe3b4186f6b6457e060405160405180910390a3806000806101000a81548173ffffffffffffffffffffffffffffffffffffffff021916908373ffffffffffffffffffffffffffffffffffffffff16021790555050565b6000813590506111ff816119d4565b92915050565b600081359050611214816119eb565b92915050565b6000602082840312156112305761122f611792565b5b600061123e848285016111f0565b91505092915050565b6000806040838503121561125e5761125d611792565b5b600061126c858286016111f0565b925050602061127d858286016111f0565b9150509250929050565b6000806000606084860312156112a05761129f611792565b5b60006112ae868287016111f0565b93505060206112bf868287016111f0565b92505060406112d086828701611205565b9150509250925092565b600080604083850312156112f1576112f0611792565b5b60006112ff858286016111f0565b925050602061131085828601611205565b9150509250929050565b611323816116db565b82525050565b611332816116ed565b82525050565b600061134382611635565b61134d8185611640565b935061135d818560208601611730565b61136681611797565b840191505092915050565b600061137e602383611640565b9150611389826117a8565b604082019050919050565b60006113a1602683611640565b91506113ac826117f7565b604082019050919050565b60006113c4602283611640565b91506113cf82611846565b604082019050919050565b60006113e7601b83611640565b91506113f282611895565b602082019050919050565b600061140a602083611640565b9150611415826118be565b602082019050919050565b600061142d602583611640565b9150611438826118e7565b604082019050919050565b6000611450602483611640565b915061145b82611936565b604082019050919050565b6000611473602a83611640565b915061147e82611985565b604082019050919050565b61149281611719565b82525050565b6114a181611723565b82525050565b60006020820190506114bc600083018461131a565b92915050565b60006020820190506114d76000830184611329565b92915050565b600060208201905081810360008301526114f78184611338565b905092915050565b6000602082019050818103600083015261151881611371565b9050919050565b6000602082019050818103600083015261153881611394565b9050919050565b60006020820190508181036000830152611558816113b7565b9050919050565b60006020820190508181036000830152611578816113da565b9050919050565b60006020820190508181036000830152611598816113fd565b9050919050565b600060208201905081810360008301526115b881611420565b9050919050565b600060208201905081810360008301526115d881611443565b9050919050565b600060208201905081810360008301526115f881611466565b9050919050565b60006020820190506116146000830184611489565b92915050565b600060208201905061162f6000830184611498565b92915050565b600081519050919050565b600082825260208201905092915050565b600061165c82611719565b915061166783611719565b9250827fffffffffffffffffffffffffffffffffffffffffffffffffffffffffffffffff0382111561169c5761169b611763565b5b828201905092915050565b60006116b282611719565b91506116bd83611719565b9250828210156116d0576116cf611763565b5b828203905092915050565b60006116e6826116f9565b9050919050565b60008115159050919050565b600073ffffffffffffffffffffffffffffffffffffffff82169050919050565b6000819050919050565b600060ff82169050919050565b60005b8381101561174e578082015181840152602081019050611733565b8381111561175d576000848401525b50505050565b7f4e487b7100000000000000000000000000000000000000000000000000000000600052601160045260246000fd5b600080fd5b6000601f19601f8301169050919050565b7f45524332303a207472616e7366657220746f20746865207a65726f206164647260008201527f6573730000000000000000000000000000000000000000000000000000000000602082015250565b7f4f776e61626c653a206e6577206f776e657220697320746865207a65726f206160008201527f6464726573730000000000000000000000000000000000000000000000000000602082015250565b7f45524332303a20617070726f766520746f20746865207a65726f20616464726560008201527f7373000000000000000000000000000000000000000000000000000000000000602082015250565b7f536166654d6174683a206164646974696f6e206f766572666c6f770000000000600082015250565b7f4f776e61626c653a2063616c6c6572206973206e6f7420746865206f776e6572600082015250565b7f45524332303a207472616e736665722066726f6d20746865207a65726f20616460008201527f6472657373000000000000000000000000000000000000000000000000000000602082015250565b7f45524332303a20617070726f76652066726f6d20746865207a65726f2061646460008201527f7265737300000000000000000000000000000000000000000000000000000000602082015250565b7f426c61636b6c6973746564206164647265737365732063616e277420646f206260008201527f7579206f722073656c6c00000000000000000000000000000000000000000000602082015250565b6119dd816116db565b81146119e857600080fd5b50565b6119f481611719565b81146119ff57600080fd5b5056fe45524332303a207472616e7366657220616d6f756e7420657863656564732062616c616e636545524332303a207472616e7366657220616d6f756e74206578636565647320616c6c6f77616e636545524332303a2064656372656173656420616c6c6f77616e63652062656c6f77207a65726fa26469706673582212202f558a42b622f225dec4e450eec9382d74a5a335baba29d61595beab37162ba064736f6c63430008060033",
  "immutableReferences": {},
  "source": "// SPDX-License-Identifier: Unlicensed\r\n\r\n/**   __\r\n *  _|__\\_  ______\r\n * | @@@@ \\ $$$$$$\\             ____________\r\n * | @@@@ \\     $$\\            |$$$$$$$$$$$$\\\r\n * | @@@@ \\    $$ \\            |$$$       $$\\\r\n * | @@@@ \\   $$   \\______                   ________________________________\r\n * | @@@@ \\  $$    $$$$$$$\\    $   $ $$ $$  |$$$$$ $$$$$$   $   $$$$$$ $$$$$$\\\r\n * | @@@@ \\ $$     $$         $$$  $ $$ $$  |$$      $$    $$$    $$   $$    \\\r\n * | @@@@ \\  $$$   $$$$$$$|  $$ $$   $$     |$$$$$   $$   $$ $$   $$   $$$$  \\\r\n * | @@@@ \\   $$$  $$       $$$$$$$  $$   $$    $$   $$   $$$$$   $$   $$    \\\r\n * | @@@@ \\    $$$ $$$$$$$ $$     $$ $$$$$$$ $$$$$   $$  $$   $$  $$   $$$$$$\\\r\n * |______\\     $$$$ _____|  $_____________$\r\n */\r\n\r\npragma solidity ^0.8.6;\r\n\r\n// import \"@openzeppelin/contracts/utils/Context.sol\"\r\nabstract contract Context {\r\n\r\n    constructor () { }\r\n\r\n    function _msgSender() internal view returns (address payable) {\r\n\r\n        return payable(msg.sender);\r\n    }\r\n\r\n    function _msgData() internal view returns (bytes memory) {\r\n\r\n        this;\r\n        return msg.data;\r\n    }\r\n}\r\n\r\n// import \"@openzeppelin/contracts/access/Ownable.sol\"\r\ncontract Ownable is Context {\r\n    address private _owner;\r\n\r\n    event OwnershipTransferred(address indexed previousOwner, address indexed newOwner);\r\n\r\n    constructor () {\r\n\r\n        address msgSender = _msgSender();\r\n        _owner = msgSender;\r\n        emit OwnershipTransferred(address(0), msgSender);\r\n    }\r\n\r\n    function owner() public view returns (address) {\r\n\r\n        return _owner;\r\n    }\r\n\r\n    modifier onlyOwner() {\r\n\r\n        require(isOwner(), \"Ownable: caller is not the owner\");\r\n        _;\r\n    }\r\n\r\n    function isOwner() public view returns (bool) {\r\n\r\n        return _msgSender() == _owner;\r\n    }\r\n\r\n    function renounceOwnership() public onlyOwner {\r\n\r\n        emit OwnershipTransferred(_owner, address(0));\r\n        _owner = address(0);\r\n    }\r\n\r\n    function transferOwnership(address newOwner) public onlyOwner {\r\n\r\n        _transferOwnership(newOwner);\r\n    }\r\n\r\n    function _transferOwnership(address newOwner) internal {\r\n\r\n        require(newOwner != address(0), \"Ownable: new owner is the zero address\");\r\n        emit OwnershipTransferred(_owner, newOwner);\r\n        _owner = newOwner;\r\n    }\r\n}\r\n\r\n// import \"@openzeppelin/contracts/token/ERC20/IERC20.sol\"\r\ninterface IERC20 {\r\n\r\n    function totalSupply() external view returns (uint256);\r\n    function balanceOf(address account) external view returns (uint256);\r\n    function transfer(address recipient, uint256 amount) external returns (bool);\r\n    function allowance(address owner, address spender) external view returns (uint256);\r\n    function approve(address spender, uint256 amount) external returns (bool);\r\n    function transferFrom(address sender, address recipient, uint256 amount) external returns (bool);\r\n\r\n    event Transfer(address indexed from, address indexed to, uint256 value);\r\n    event Approval(address indexed owner, address indexed spender, uint256 value);\r\n}\r\n\r\nlibrary SafeMath {\r\n\r\n    function add(uint256 a, uint256 b) internal pure returns (uint256) {\r\n\r\n        uint256 c = a + b;\r\n        require(c >= a, \"SafeMath: addition overflow\");\r\n\r\n        return c;\r\n    }\r\n\r\n    function sub(uint256 a, uint256 b) internal pure returns (uint256) {\r\n\r\n        return sub(a, b, \"SafeMath: subtraction overflow\");\r\n    }\r\n\r\n    function sub(uint256 a, uint256 b, string memory errorMessage) internal pure returns (uint256) {\r\n\r\n        require(b <= a, errorMessage);\r\n        uint256 c = a - b;\r\n\r\n        return c;\r\n    }\r\n\r\n    function mul(uint256 a, uint256 b) internal pure returns (uint256) {\r\n\r\n        if (a == 0) {\r\n            return 0;\r\n        }\r\n\r\n        uint256 c = a * b;\r\n        require(c / a == b, \"SafeMath: multiplication overflow\");\r\n\r\n        return c;\r\n    }\r\n\r\n    function div(uint256 a, uint256 b) internal pure returns (uint256) {\r\n\r\n        return div(a, b, \"SafeMath: division by zero\");\r\n    }\r\n\r\n    function div(uint256 a, uint256 b, string memory errorMessage) internal pure returns (uint256) {\r\n\r\n        require(b > 0, errorMessage);\r\n        uint256 c = a / b;\r\n\r\n        return c;\r\n    }\r\n\r\n    function mod(uint256 a, uint256 b) internal pure returns (uint256) {\r\n\r\n        return mod(a, b, \"SafeMath: modulo by zero\");\r\n    }\r\n\r\n    function mod(uint256 a, uint256 b, string memory errorMessage) internal pure returns (uint256) {\r\n\r\n        require(b != 0, errorMessage);\r\n        return a % b;\r\n    }\r\n}\r\n\r\ncontract ERC20 is Context, IERC20, Ownable {\r\n\r\n    using SafeMath for uint256;\r\n\r\n    mapping (address => uint256) private _balances;\r\n    mapping (address => bool) private _isBlacklisted;\r\n\r\n    mapping (address => mapping (address => uint256)) private _allowances;\r\n\r\n    uint256 private _totalSupply;\r\n\r\n    function totalSupply() public override view returns (uint256) {\r\n\r\n        return _totalSupply;\r\n    }\r\n\r\n    function balanceOf(address account) public override view returns (uint256) {\r\n\r\n        return _balances[account];\r\n    }\r\n\r\n    function transfer(address recipient, uint256 amount) public override returns (bool) {\r\n\r\n        _transfer(_msgSender(), recipient, amount);\r\n        return true;\r\n    }\r\n\r\n    function allowance(address owner, address spender) public override view returns (uint256) {\r\n\r\n        return _allowances[owner][spender];\r\n    }\r\n\r\n    function approve(address spender, uint256 amount) public override returns (bool) {\r\n\r\n        _approve(_msgSender(), spender, amount);\r\n        return true;\r\n    }\r\n\r\n    function transferFrom(address sender, address recipient, uint256 amount) public override returns (bool) {\r\n\r\n        _transfer(sender, recipient, amount);\r\n        _approve(sender, _msgSender(), _allowances[sender][_msgSender()].sub(amount, \"ERC20: transfer amount exceeds allowance\"));\r\n        return true;\r\n    }\r\n\r\n    function increaseAllowance(address spender, uint256 addedValue) public returns (bool) {\r\n\r\n        _approve(_msgSender(), spender, _allowances[_msgSender()][spender].add(addedValue));\r\n        return true;\r\n    }\r\n\r\n    function decreaseAllowance(address spender, uint256 subtractedValue) public returns (bool) {\r\n\r\n        _approve(_msgSender(), spender, _allowances[_msgSender()][spender].sub(subtractedValue, \"ERC20: decreased allowance below zero\"));\r\n        return true;\r\n    }\r\n\r\n    function _transfer(address sender, address recipient, uint256 amount) internal {\r\n\r\n        require(sender != address(0), \"ERC20: transfer from the zero address\");\r\n        require(recipient != address(0), \"ERC20: transfer to the zero address\");\r\n\r\n        // Addresses in Blacklist can't do buy or sell.\r\n        require(_isBlacklisted[sender] == false && _isBlacklisted[recipient] == false, \"Blacklisted addresses can't do buy or sell\");\r\n\r\n        _balances[sender] = _balances[sender].sub(amount, \"ERC20: transfer amount exceeds balance\");\r\n        _balances[recipient] = _balances[recipient].add(amount);\r\n        emit Transfer(sender, recipient, amount);\r\n    }\r\n\r\n    function _mint(address account, uint256 amount) internal {\r\n\r\n        require(account != address(0), \"ERC20: mint to the zero address\");\r\n\r\n        _totalSupply = _totalSupply.add(amount);\r\n        _balances[account] = _balances[account].add(amount);\r\n        emit Transfer(address(0), account, amount);\r\n    }\r\n\r\n    function _burn(address account, uint256 amount) internal {\r\n\r\n        require(account != address(0), \"ERC20: burn from the zero address\");\r\n\r\n        _balances[account] = _balances[account].sub(amount, \"ERC20: burn amount exceeds balance\");\r\n        _totalSupply = _totalSupply.sub(amount);\r\n        emit Transfer(account, address(0), amount);\r\n    }\r\n\r\n    function _approve(address owner, address spender, uint256 amount) internal {\r\n\r\n        require(owner != address(0), \"ERC20: approve from the zero address\");\r\n        require(spender != address(0), \"ERC20: approve to the zero address\");\r\n\r\n        _allowances[owner][spender] = amount;\r\n        emit Approval(owner, spender, amount);\r\n    }\r\n\r\n    function _burnFrom(address account, uint256 amount) internal {\r\n\r\n        _burn(account, amount);\r\n        _approve(account, _msgSender(), _allowances[account][_msgSender()].sub(amount, \"ERC20: burn amount exceeds allowance\"));\r\n    }\r\n\r\n    function setAddressAsBlacklisted(address account) public onlyOwner {\r\n        _isBlacklisted[account] = true;\r\n    }\r\n\r\n    function setAddressAsWhitelisted(address account) public onlyOwner {\r\n        _isBlacklisted[account] = false;\r\n    }\r\n}\r\n\r\ncontract REALESTATEToken is ERC20 {\r\n\r\n    string constant public name = \"DEMORE\";\r\n    string constant public symbol = \"DRE\";\r\n    uint8 constant public decimals = 18;\r\n    uint256 constant public initialSupply = 566 * 10**18;\r\n\r\n    constructor () {\r\n\r\n        _mint(msg.sender, initialSupply);\r\n    }\r\n}\r\n",
  "sourcePath": "F:\\OngoingJobs\\00.Cory\\Real-Estate-Presale\\contracts\\BEPToken.sol",
  "compiler": {
    "name": "solc",
    "version": "0.8.6+commit.11564f7e.Emscripten.clang"
  },
  "schemaVersion": "3.4.2",
  "updatedAt": "2021-07-28T17:59:15.866Z",
  "devdoc": {
    "kind": "dev",
    "methods": {},
    "version": 1
  },
  "userdoc": {
    "kind": "user",
    "methods": {},
    "version": 1
  }
}