{
  "contractName": "REALESTATE_PreSale",
  "abi": [
    {
      "inputs": [
        {
          "internalType": "uint256",
          "name": "rate",
          "type": "uint256"
        },
        {
          "internalType": "address",
          "name": "wallet",
          "type": "address"
        },
        {
          "internalType": "contract IERC20",
          "name": "token",
          "type": "address"
        }
      ],
      "stateMutability": "nonpayable",
      "type": "constructor"
    },
    {
      "anonymous": false,
      "inputs": [
        {
          "indexed": false,
          "internalType": "address",
          "name": "receiver",
          "type": "address"
        },
        {
          "indexed": false,
          "internalType": "uint256",
          "name": "amount",
          "type": "uint256"
        }
      ],
      "name": "AirdropClaimed",
      "type": "event"
    },
    {
      "anonymous": false,
      "inputs": [
        {
          "indexed": false,
          "internalType": "address[]",
          "name": "receiver",
          "type": "address[]"
        },
        {
          "indexed": false,
          "internalType": "uint256[]",
          "name": "amount",
          "type": "uint256[]"
        }
      ],
      "name": "DropSent",
      "type": "event"
    },
    {
      "anonymous": false,
      "inputs": [
        {
          "indexed": true,
          "internalType": "address",
          "name": "previousOwner",
          "type": "address"
        },
        {
          "indexed": true,
          "internalType": "address",
          "name": "newOwner",
          "type": "address"
        }
      ],
      "name": "OwnershipTransferred",
      "type": "event"
    },
    {
      "anonymous": false,
      "inputs": [
        {
          "indexed": true,
          "internalType": "address",
          "name": "purchaser",
          "type": "address"
        },
        {
          "indexed": true,
          "internalType": "address",
          "name": "beneficiary",
          "type": "address"
        },
        {
          "indexed": false,
          "internalType": "uint256",
          "name": "value",
          "type": "uint256"
        },
        {
          "indexed": false,
          "internalType": "uint256",
          "name": "amount",
          "type": "uint256"
        }
      ],
      "name": "TokensPurchased",
      "type": "event"
    },
    {
      "anonymous": false,
      "inputs": [
        {
          "indexed": false,
          "internalType": "address[]",
          "name": "recipient",
          "type": "address[]"
        },
        {
          "indexed": false,
          "internalType": "uint256[]",
          "name": "amount",
          "type": "uint256[]"
        }
      ],
      "name": "WhitelistSetted",
      "type": "event"
    },
    {
      "inputs": [],
      "name": "availableTokensICO",
      "outputs": [
        {
          "internalType": "uint256",
          "name": "",
          "type": "uint256"
        }
      ],
      "stateMutability": "view",
      "type": "function"
    },
    {
      "inputs": [],
      "name": "endICO",
      "outputs": [
        {
          "internalType": "uint256",
          "name": "",
          "type": "uint256"
        }
      ],
      "stateMutability": "view",
      "type": "function"
    },
    {
      "inputs": [],
      "name": "isOwner",
      "outputs": [
        {
          "internalType": "bool",
          "name": "",
          "type": "bool"
        }
      ],
      "stateMutability": "view",
      "type": "function"
    },
    {
      "inputs": [],
      "name": "maxPurchase",
      "outputs": [
        {
          "internalType": "uint256",
          "name": "",
          "type": "uint256"
        }
      ],
      "stateMutability": "view",
      "type": "function"
    },
    {
      "inputs": [],
      "name": "minPurchase",
      "outputs": [
        {
          "internalType": "uint256",
          "name": "",
          "type": "uint256"
        }
      ],
      "stateMutability": "view",
      "type": "function"
    },
    {
      "inputs": [],
      "name": "owner",
      "outputs": [
        {
          "internalType": "address",
          "name": "",
          "type": "address"
        }
      ],
      "stateMutability": "view",
      "type": "function"
    },
    {
      "inputs": [],
      "name": "renounceOwnership",
      "outputs": [],
      "stateMutability": "nonpayable",
      "type": "function"
    },
    {
      "inputs": [
        {
          "internalType": "address",
          "name": "newOwner",
          "type": "address"
        }
      ],
      "name": "transferOwnership",
      "outputs": [],
      "stateMutability": "nonpayable",
      "type": "function"
    },
    {
      "stateMutability": "payable",
      "type": "receive"
    },
    {
      "inputs": [
        {
          "internalType": "uint256",
          "name": "endDate",
          "type": "uint256"
        },
        {
          "internalType": "uint256",
          "name": "_minPurchase",
          "type": "uint256"
        },
        {
          "internalType": "uint256",
          "name": "_maxPurchase",
          "type": "uint256"
        },
        {
          "internalType": "uint256",
          "name": "_availableTokens",
          "type": "uint256"
        }
      ],
      "name": "startICO",
      "outputs": [],
      "stateMutability": "nonpayable",
      "type": "function"
    },
    {
      "inputs": [],
      "name": "stopICO",
      "outputs": [],
      "stateMutability": "nonpayable",
      "type": "function"
    },
    {
      "inputs": [
        {
          "internalType": "address",
          "name": "beneficiary",
          "type": "address"
        }
      ],
      "name": "buyTokens",
      "outputs": [],
      "stateMutability": "payable",
      "type": "function"
    },
    {
      "inputs": [],
      "name": "withdraw",
      "outputs": [],
      "stateMutability": "nonpayable",
      "type": "function"
    },
    {
      "inputs": [],
      "name": "getToken",
      "outputs": [
        {
          "internalType": "contract IERC20",
          "name": "",
          "type": "address"
        }
      ],
      "stateMutability": "view",
      "type": "function"
    },
    {
      "inputs": [],
      "name": "getWallet",
      "outputs": [
        {
          "internalType": "address",
          "name": "",
          "type": "address"
        }
      ],
      "stateMutability": "view",
      "type": "function"
    },
    {
      "inputs": [],
      "name": "getRate",
      "outputs": [
        {
          "internalType": "uint256",
          "name": "",
          "type": "uint256"
        }
      ],
      "stateMutability": "view",
      "type": "function"
    },
    {
      "inputs": [
        {
          "internalType": "uint256",
          "name": "newRate",
          "type": "uint256"
        }
      ],
      "name": "setRate",
      "outputs": [],
      "stateMutability": "nonpayable",
      "type": "function"
    },
    {
      "inputs": [
        {
          "internalType": "uint256",
          "name": "amount",
          "type": "uint256"
        }
      ],
      "name": "setAvailableTokens",
      "outputs": [],
      "stateMutability": "nonpayable",
      "type": "function"
    },
    {
      "inputs": [],
      "name": "weiRaised",
      "outputs": [
        {
          "internalType": "uint256",
          "name": "",
          "type": "uint256"
        }
      ],
      "stateMutability": "view",
      "type": "function"
    }
  ],
  "bytecode": "0x60806040523480156200001157600080fd5b50604051620024e0380380620024e083398181016040528101906200003791906200030d565b60016000806101000a81548160ff021916908315150217905550600062000063620002c060201b60201c565b905080600060016101000a81548173ffffffffffffffffffffffffffffffffffffffff021916908373ffffffffffffffffffffffffffffffffffffffff1602179055508073ffffffffffffffffffffffffffffffffffffffff16600073ffffffffffffffffffffffffffffffffffffffff167f8be0079c531659141344cd1fd0a4f28419497f9722a3daafe3b4186f6b6457e060405160405180910390a3506000831162000148576040517f08c379a00000000000000000000000000000000000000000000000000000000081526004016200013f9062000422565b60405180910390fd5b600073ffffffffffffffffffffffffffffffffffffffff168273ffffffffffffffffffffffffffffffffffffffff161415620001bb576040517f08c379a0000000000000000000000000000000000000000000000000000000008152600401620001b290620003de565b60405180910390fd5b600073ffffffffffffffffffffffffffffffffffffffff168173ffffffffffffffffffffffffffffffffffffffff1614156200022e576040517f08c379a0000000000000000000000000000000000000000000000000000000008152600401620002259062000400565b60405180910390fd5b8260038190555081600260006101000a81548173ffffffffffffffffffffffffffffffffffffffff021916908373ffffffffffffffffffffffffffffffffffffffff16021790555080600160006101000a81548173ffffffffffffffffffffffffffffffffffffffff021916908373ffffffffffffffffffffffffffffffffffffffff160217905550505050620005c1565b600033905090565b600081519050620002d98162000573565b92915050565b600081519050620002f0816200058d565b92915050565b6000815190506200030781620005a7565b92915050565b600080600060608486031215620003295762000328620004a7565b5b60006200033986828701620002f6565b93505060206200034c86828701620002c8565b92505060406200035f86828701620002df565b9150509250925092565b60006200037860248362000444565b91506200038582620004ac565b604082019050919050565b60006200039f60238362000444565b9150620003ac82620004fb565b604082019050919050565b6000620003c660138362000444565b9150620003d3826200054a565b602082019050919050565b60006020820190508181036000830152620003f98162000369565b9050919050565b600060208201905081810360008301526200041b8162000390565b9050919050565b600060208201905081810360008301526200043d81620003b7565b9050919050565b600082825260208201905092915050565b600062000462826200047d565b9050919050565b6000620004768262000455565b9050919050565b600073ffffffffffffffffffffffffffffffffffffffff82169050919050565b6000819050919050565b600080fd5b7f5072652d53616c653a2077616c6c657420697320746865207a65726f2061646460008201527f7265737300000000000000000000000000000000000000000000000000000000602082015250565b7f5072652d53616c653a20746f6b656e20697320746865207a65726f206164647260008201527f6573730000000000000000000000000000000000000000000000000000000000602082015250565b7f5072652d53616c653a2072617465206973203000000000000000000000000000600082015250565b6200057e8162000455565b81146200058a57600080fd5b50565b620005988162000469565b8114620005a457600080fd5b50565b620005b2816200049d565b8114620005be57600080fd5b50565b611f0f80620005d16000396000f3fe60806040526004361061010d5760003560e01c8063715018a611610095578063a41a028b11610064578063a41a028b14610384578063c8e569a8146103af578063ec8ac4d8146103c6578063f2fde38b146103e2578063f6d893ec1461040b5761017c565b8063715018a6146102ec5780638da5cb5b146103035780638f32d59b1461032e578063977b055b146103595761017c565b80633ccfd60b116100dc5780633ccfd60b1461022b578063401c6cd4146102425780634042b66f1461026b5780634f24840914610296578063679aefce146102c15761017c565b8063132996041461018157806321df0da7146101ac57806333b5b62e146101d757806334fcf437146102025761017c565b3661017c576000600554118015610125575060055442105b1561013f5761013a610135610434565b61043c565b61017a565b6040517f08c379a0000000000000000000000000000000000000000000000000000000008152600401610171906117fe565b60405180910390fd5b005b600080fd5b34801561018d57600080fd5b506101966105ed565b6040516101a39190611622565b60405180910390f35b3480156101b857600080fd5b506101c1610617565b6040516101ce9190611681565b60405180910390f35b3480156101e357600080fd5b506101ec610641565b6040516101f991906118be565b60405180910390f35b34801561020e57600080fd5b50610229600480360381019061022491906112bc565b610647565b005b34801561023757600080fd5b50610240610698565b005b34801561024e57600080fd5b5061026960048036038101906102649190611316565b61078d565b005b34801561027757600080fd5b506102806109ad565b60405161028d91906118be565b60405180910390f35b3480156102a257600080fd5b506102ab6109b7565b6040516102b891906118be565b60405180910390f35b3480156102cd57600080fd5b506102d66109bd565b6040516102e391906118be565b60405180910390f35b3480156102f857600080fd5b506103016109c7565b005b34801561030f57600080fd5b50610318610ace565b6040516103259190611622565b60405180910390f35b34801561033a57600080fd5b50610343610af7565b6040516103509190611666565b60405180910390f35b34801561036557600080fd5b5061036e610b55565b60405161037b91906118be565b60405180910390f35b34801561039057600080fd5b50610399610b5b565b6040516103a691906118be565b60405180910390f35b3480156103bb57600080fd5b506103c4610b61565b005b6103e060048036038101906103db9190611262565b61043c565b005b3480156103ee57600080fd5b5061040960048036038101906104049190611262565b610c12565b005b34801561041757600080fd5b50610432600480360381019061042d91906112bc565b610c65565b005b600033905090565b60008054906101000a900460ff16610489576040517f08c379a00000000000000000000000000000000000000000000000000000000081526004016104809061185e565b60405180910390fd5b60008060006101000a81548160ff02191690831515021790555060006005541180156104b6575060055442105b80156104c457506000600854115b610503576040517f08c379a00000000000000000000000000000000000000000000000000000000081526004016104fa9061171e565b60405180910390fd5b60003490506105128282610cb6565b600061051d82610df8565b905061053482600454610e2b90919063ffffffff16565b6004819055508060085461054891906119ff565b6008819055506105588382610e89565b8273ffffffffffffffffffffffffffffffffffffffff16610577610434565b73ffffffffffffffffffffffffffffffffffffffff167f6faf93231a456e552dbc9961f58d9713ee4f2e69d15f1975b050ef0911053a7b84846040516105be9291906118d9565b60405180910390a36105ce610e97565b505060016000806101000a81548160ff02191690831515021790555050565b6000600260009054906101000a900473ffffffffffffffffffffffffffffffffffffffff16905090565b6000600160009054906101000a900473ffffffffffffffffffffffffffffffffffffffff16905090565b60065481565b61064f610af7565b61068e576040517f08c379a0000000000000000000000000000000000000000000000000000000008152600401610685906117de565b60405180910390fd5b8060038190555050565b6106a0610af7565b6106df576040517f08c379a00000000000000000000000000000000000000000000000000000000081526004016106d6906117de565b60405180910390fd5b60004711610722576040517f08c379a00000000000000000000000000000000000000000000000000000000081526004016107199061189e565b60405180910390fd5b600260009054906101000a900473ffffffffffffffffffffffffffffffffffffffff1673ffffffffffffffffffffffffffffffffffffffff166108fc479081150290604051600060405180830381858888f1935050505015801561078a573d6000803e3d6000fd5b50565b610795610af7565b6107d4576040517f08c379a00000000000000000000000000000000000000000000000000000000081526004016107cb906117de565b60405180910390fd5b4260055410610818576040517f08c379a000000000000000000000000000000000000000000000000000000000815260040161080f9061183e565b60405180910390fd5b42841161085a576040517f08c379a0000000000000000000000000000000000000000000000000000000008152600401610851906116de565b60405180910390fd5b6000811180156109095750600160009054906101000a900473ffffffffffffffffffffffffffffffffffffffff1673ffffffffffffffffffffffffffffffffffffffff166318160ddd6040518163ffffffff1660e01b815260040160206040518083038186803b1580156108cd57600080fd5b505afa1580156108e1573d6000803e3d6000fd5b505050506040513d601f19601f8201168201806040525081019061090591906112e9565b8111155b610948576040517f08c379a000000000000000000000000000000000000000000000000000000000815260040161093f9061173e565b60405180910390fd5b6000831161098b576040517f08c379a00000000000000000000000000000000000000000000000000000000081526004016109829061177e565b60405180910390fd5b8360058190555080600881905550826006819055508160078190555050505050565b6000600454905090565b60055481565b6000600354905090565b6109cf610af7565b610a0e576040517f08c379a0000000000000000000000000000000000000000000000000000000008152600401610a05906117de565b60405180910390fd5b600073ffffffffffffffffffffffffffffffffffffffff16600060019054906101000a900473ffffffffffffffffffffffffffffffffffffffff1673ffffffffffffffffffffffffffffffffffffffff167f8be0079c531659141344cd1fd0a4f28419497f9722a3daafe3b4186f6b6457e060405160405180910390a360008060016101000a81548173ffffffffffffffffffffffffffffffffffffffff021916908373ffffffffffffffffffffffffffffffffffffffff160217905550565b60008060019054906101000a900473ffffffffffffffffffffffffffffffffffffffff16905090565b60008060019054906101000a900473ffffffffffffffffffffffffffffffffffffffff1673ffffffffffffffffffffffffffffffffffffffff16610b39610434565b73ffffffffffffffffffffffffffffffffffffffff1614905090565b60075481565b60085481565b610b69610af7565b610ba8576040517f08c379a0000000000000000000000000000000000000000000000000000000008152600401610b9f906117de565b60405180910390fd5b6000600554118015610bbb575060055442105b8015610bc957506000600854115b610c08576040517f08c379a0000000000000000000000000000000000000000000000000000000008152600401610bff9061171e565b60405180910390fd5b6000600581905550565b610c1a610af7565b610c59576040517f08c379a0000000000000000000000000000000000000000000000000000000008152600401610c50906117de565b60405180910390fd5b610c6281610f02565b50565b610c6d610af7565b610cac576040517f08c379a0000000000000000000000000000000000000000000000000000000008152600401610ca3906117de565b60405180910390fd5b8060088190555050565b600073ffffffffffffffffffffffffffffffffffffffff168273ffffffffffffffffffffffffffffffffffffffff161415610d26576040517f08c379a0000000000000000000000000000000000000000000000000000000008152600401610d1d9061181e565b60405180910390fd5b6000811415610d6a576040517f08c379a0000000000000000000000000000000000000000000000000000000008152600401610d619061187e565b60405180910390fd5b600654811015610daf576040517f08c379a0000000000000000000000000000000000000000000000000000000008152600401610da69061179e565b60405180910390fd5b600754811115610df4576040517f08c379a0000000000000000000000000000000000000000000000000000000008152600401610deb9061175e565b60405180910390fd5b5050565b6000610e24620186a0610e166003548561103290919063ffffffff16565b6110ad90919063ffffffff16565b9050919050565b6000808284610e3a919061191e565b905083811015610e7f576040517f08c379a0000000000000000000000000000000000000000000000000000000008152600401610e76906116fe565b60405180910390fd5b8091505092915050565b610e9382826110f7565b5050565b600260009054906101000a900473ffffffffffffffffffffffffffffffffffffffff1673ffffffffffffffffffffffffffffffffffffffff166108fc349081150290604051600060405180830381858888f19350505050158015610eff573d6000803e3d6000fd5b50565b600073ffffffffffffffffffffffffffffffffffffffff168173ffffffffffffffffffffffffffffffffffffffff161415610f72576040517f08c379a0000000000000000000000000000000000000000000000000000000008152600401610f69906116be565b60405180910390fd5b8073ffffffffffffffffffffffffffffffffffffffff16600060019054906101000a900473ffffffffffffffffffffffffffffffffffffffff1673ffffffffffffffffffffffffffffffffffffffff167f8be0079c531659141344cd1fd0a4f28419497f9722a3daafe3b4186f6b6457e060405160405180910390a380600060016101000a81548173ffffffffffffffffffffffffffffffffffffffff021916908373ffffffffffffffffffffffffffffffffffffffff16021790555050565b60008083141561104557600090506110a7565b6000828461105391906119a5565b90508284826110629190611974565b146110a2576040517f08c379a0000000000000000000000000000000000000000000000000000000008152600401611099906117be565b60405180910390fd5b809150505b92915050565b60006110ef83836040518060400160405280601a81526020017f536166654d6174683a206469766973696f6e206279207a65726f0000000000008152506111ab565b905092915050565b600160009054906101000a900473ffffffffffffffffffffffffffffffffffffffff1673ffffffffffffffffffffffffffffffffffffffff1663a9059cbb83836040518363ffffffff1660e01b815260040161115492919061163d565b602060405180830381600087803b15801561116e57600080fd5b505af1158015611182573d6000803e3d6000fd5b505050506040513d601f19601f820116820180604052508101906111a6919061128f565b505050565b600080831182906111f2576040517f08c379a00000000000000000000000000000000000000000000000000000000081526004016111e9919061169c565b60405180910390fd5b50600083856112019190611974565b9050809150509392505050565b60008135905061121d81611e94565b92915050565b60008151905061123281611eab565b92915050565b60008135905061124781611ec2565b92915050565b60008151905061125c81611ec2565b92915050565b60006020828403121561127857611277611b30565b5b60006112868482850161120e565b91505092915050565b6000602082840312156112a5576112a4611b30565b5b60006112b384828501611223565b91505092915050565b6000602082840312156112d2576112d1611b30565b5b60006112e084828501611238565b91505092915050565b6000602082840312156112ff576112fe611b30565b5b600061130d8482850161124d565b91505092915050565b600080600080608085870312156113305761132f611b30565b5b600061133e87828801611238565b945050602061134f87828801611238565b935050604061136087828801611238565b925050606061137187828801611238565b91505092959194509250565b61138681611a33565b82525050565b61139581611a45565b82525050565b6113a481611a7b565b82525050565b60006113b582611902565b6113bf818561190d565b93506113cf818560208601611a9f565b6113d881611b35565b840191505092915050565b60006113f060268361190d565b91506113fb82611b46565b604082019050919050565b600061141360168361190d565b915061141e82611b95565b602082019050919050565b6000611436601b8361190d565b915061144182611bbe565b602082019050919050565b600061145960128361190d565b915061146482611be7565b602082019050919050565b600061147c60308361190d565b915061148782611c10565b604082019050919050565b600061149f601d8361190d565b91506114aa82611c5f565b602082019050919050565b60006114c260178361190d565b91506114cd82611c88565b602082019050919050565b60006114e560228361190d565b91506114f082611cb1565b604082019050919050565b600061150860218361190d565b915061151382611d00565b604082019050919050565b600061152b60208361190d565b915061153682611d4f565b602082019050919050565b600061154e60128361190d565b915061155982611d78565b602082019050919050565b6000611571602a8361190d565b915061157c82611da1565b604082019050919050565b600061159460188361190d565b915061159f82611df0565b602082019050919050565b60006115b7601f8361190d565b91506115c282611e19565b602082019050919050565b60006115da60198361190d565b91506115e582611e42565b602082019050919050565b60006115fd60158361190d565b915061160882611e6b565b602082019050919050565b61161c81611a71565b82525050565b6000602082019050611637600083018461137d565b92915050565b6000604082019050611652600083018561137d565b61165f6020830184611613565b9392505050565b600060208201905061167b600083018461138c565b92915050565b6000602082019050611696600083018461139b565b92915050565b600060208201905081810360008301526116b681846113aa565b905092915050565b600060208201905081810360008301526116d7816113e3565b9050919050565b600060208201905081810360008301526116f781611406565b9050919050565b6000602082019050818103600083015261171781611429565b9050919050565b600060208201905081810360008301526117378161144c565b9050919050565b600060208201905081810360008301526117578161146f565b9050919050565b6000602082019050818103600083015261177781611492565b9050919050565b60006020820190508181036000830152611797816114b5565b9050919050565b600060208201905081810360008301526117b7816114d8565b9050919050565b600060208201905081810360008301526117d7816114fb565b9050919050565b600060208201905081810360008301526117f78161151e565b9050919050565b6000602082019050818103600083015261181781611541565b9050919050565b6000602082019050818103600083015261183781611564565b9050919050565b6000602082019050818103600083015261185781611587565b9050919050565b60006020820190508181036000830152611877816115aa565b9050919050565b60006020820190508181036000830152611897816115cd565b9050919050565b600060208201905081810360008301526118b7816115f0565b9050919050565b60006020820190506118d36000830184611613565b92915050565b60006040820190506118ee6000830185611613565b6118fb6020830184611613565b9392505050565b600081519050919050565b600082825260208201905092915050565b600061192982611a71565b915061193483611a71565b9250827fffffffffffffffffffffffffffffffffffffffffffffffffffffffffffffffff0382111561196957611968611ad2565b5b828201905092915050565b600061197f82611a71565b915061198a83611a71565b92508261199a57611999611b01565b5b828204905092915050565b60006119b082611a71565b91506119bb83611a71565b9250817fffffffffffffffffffffffffffffffffffffffffffffffffffffffffffffffff04831182151516156119f4576119f3611ad2565b5b828202905092915050565b6000611a0a82611a71565b9150611a1583611a71565b925082821015611a2857611a27611ad2565b5b828203905092915050565b6000611a3e82611a51565b9050919050565b60008115159050919050565b600073ffffffffffffffffffffffffffffffffffffffff82169050919050565b6000819050919050565b6000611a8682611a8d565b9050919050565b6000611a9882611a51565b9050919050565b60005b83811015611abd578082015181840152602081019050611aa2565b83811115611acc576000848401525b50505050565b7f4e487b7100000000000000000000000000000000000000000000000000000000600052601160045260246000fd5b7f4e487b7100000000000000000000000000000000000000000000000000000000600052601260045260246000fd5b600080fd5b6000601f19601f8301169050919050565b7f4f776e61626c653a206e6577206f776e657220697320746865207a65726f206160008201527f6464726573730000000000000000000000000000000000000000000000000000602082015250565b7f6475726174696f6e2073686f756c64206265203e203000000000000000000000600082015250565b7f536166654d6174683a206164646974696f6e206f766572666c6f770000000000600082015250565b7f49434f206d757374206265206163746976650000000000000000000000000000600082015250565b7f617661696c61626c65546f6b656e732073686f756c64206265203e203020616e60008201527f64203c3d20746f74616c537570706c7900000000000000000000000000000000602082015250565b7f6861766520746f2073656e64206d61783a206d61785075726368617365000000600082015250565b7f5f6d696e50757263686173652073686f756c64203e2030000000000000000000600082015250565b7f6861766520746f2073656e64206174206c656173743a206d696e50757263686160008201527f7365000000000000000000000000000000000000000000000000000000000000602082015250565b7f536166654d6174683a206d756c7469706c69636174696f6e206f766572666c6f60008201527f7700000000000000000000000000000000000000000000000000000000000000602082015250565b7f4f776e61626c653a2063616c6c6572206973206e6f7420746865206f776e6572600082015250565b7f5072652d53616c6520697320636c6f7365640000000000000000000000000000600082015250565b7f43726f776473616c653a2062656e656669636961727920697320746865207a6560008201527f726f206164647265737300000000000000000000000000000000000000000000602082015250565b7f49434f2073686f756c64206e6f74206265206163746976650000000000000000600082015250565b7f5265656e7472616e637947756172643a207265656e7472616e742063616c6c00600082015250565b7f43726f776473616c653a20776569416d6f756e74206973203000000000000000600082015250565b7f436f6e747261637420686173206e6f206d6f6e65790000000000000000000000600082015250565b611e9d81611a33565b8114611ea857600080fd5b50565b611eb481611a45565b8114611ebf57600080fd5b50565b611ecb81611a71565b8114611ed657600080fd5b5056fea26469706673582212203707275ae740fa22bd8f66824518bbf23830236d834a96c2b92f9d85f592a7e864736f6c63430008060033",
  "immutableReferences": {},
  "source": "// SPDX-License-Identifier: Unlicensed\r\n\r\n/**\r\n *                                                                           @\r\n *                                                                          @@@\r\n *                       @@@@@@@                   @@@@@@@@                @ @ @\r\n *                   @@@@@@@@@@@@@@@          @@@@@@@@@@@@@@@@@@@@          @@@\r\n *                @@@@@@@@@@@@@@@@@@@@@@@  @@@@@@@@@@@@@@@@@@@@@@@@@@        @\r\n *\r\n *  @@@@@@@@    @@@@@@@@@   @@@@@@@@@@   @@@@@@@       @@@      @@@@@  @@    @@@@@@@@@@\r\n *  @@@@@@@@@@  @@@@@@@@@@  @@@@@@@@@@  @@@@@@@@@      @@@       @@@   @@@   @@@@@@@@@@\r\n *  @@@     @@@ @@@     @@@ @@@     @@ @@@     @@@    @@@@@      @@@   @@@@  @@@     @@\r\n *  @@@     @@@ @@@     @@@ @@@        @@@            @@@@@      @@@   @@@@  @@@\r\n *  @@@@@@@@@@  @@@@@@@@@@  @@@    @@   @@@@@@@      @@@ @@@     @@@   @@@@  @@@    @@\r\n *  @@@@@@@@    @@@@@@@@    @@@@@@@@@    @@@@@@@     @@@ @@@     @@@   @@@@  @@@@@@@@@\r\n *  @@@         @@@   @@@   @@@    @@         @@@   @@@   @@@    @@@   @@@@  @@@    @@\r\n *  @@@  @@@@   @@@   @@@   @@@                @@@  @@@   @@@    @@@   @@@@  @@@\r\n *  @@@   @@@   @@@    @@@  @@@     @@ @@@     @@@  @@@@@@@@@    @@@   @@    @@@     @@\r\n *  @@@    @@   @@@    @@@  @@@@@@@@@@  @@@@@@@@    @@@   @@@    @@@      @@ @@@@@@@@@@\r\n * @@@@@     @ @@@@@   @@@@ @@@@@@@@@@   @@@@@@    @@@@@ @@@@@  @@@@@@@@@@@@ @@@@@@@@@@\r\n *\r\n *               @@@@@@@@@@@@@@@@@@@@@@@@  @@@@@@@@@@@@@@@@@@@@@@@@@@\r\n *                  @@@@@@@@@@@@@@@@@@        @@@@@@@@@@@@@@@@@@@@@\r\n *                      @@@@@@@@@@                 @@@@@@@@@@@@\r\n *\r\n */\r\n\r\n\r\npragma solidity 0.8.6;\r\n\r\nabstract contract Context {\r\n\r\n    constructor () { }\r\n\r\n    function _msgSender() internal view returns (address) {\r\n\r\n        return msg.sender;\r\n    }\r\n\r\n    function _msgData() internal view returns (bytes memory) {\r\n\r\n        this; // silence state mutability warning without generating bytecode - see https://github.com/ethereum/solidity/issues/2691\r\n        return msg.data;\r\n    }\r\n}\r\n\r\n\r\nabstract contract Ownable is Context {\r\n\r\n    address private _owner;\r\n\r\n    event OwnershipTransferred(address indexed previousOwner, address indexed newOwner);\r\n\r\n    constructor () {\r\n\r\n        address msgSender = _msgSender();\r\n        _owner = msgSender;\r\n        emit OwnershipTransferred(address(0), msgSender);\r\n    }\r\n\r\n    function owner() public view returns (address) {\r\n\r\n        return _owner;\r\n    }\r\n\r\n    modifier onlyOwner() {\r\n\r\n        require(isOwner(), \"Ownable: caller is not the owner\");\r\n        _;\r\n    }\r\n\r\n    function isOwner() public view returns (bool) {\r\n\r\n        return _msgSender() == _owner;\r\n    }\r\n\r\n    function renounceOwnership() public onlyOwner {\r\n\r\n        emit OwnershipTransferred(_owner, address(0));\r\n        _owner = address(0);\r\n    }\r\n\r\n    function transferOwnership(address newOwner) public onlyOwner {\r\n\r\n        _transferOwnership(newOwner);\r\n    }\r\n\r\n    function _transferOwnership(address newOwner) internal {\r\n\r\n        require(newOwner != address(0), \"Ownable: new owner is the zero address\");\r\n        emit OwnershipTransferred(_owner, newOwner);\r\n        _owner = newOwner;\r\n    }\r\n}\r\n\r\n\r\nlibrary Address {\r\n\r\n    function isContract(address account) internal view returns (bool) {\r\n\r\n        bytes32 codehash;\r\n        bytes32 accountHash = 0xc5d2460186f7233c927e7db2dcc703c0e500b653ca82273b7bfad8045d85a470;\r\n        // solhint-disable-next-line no-inline-assembly\r\n        assembly { codehash := extcodehash(account) }\r\n        return (codehash != accountHash && codehash != 0x0);\r\n    }\r\n\r\n    function toPayable(address account) internal pure returns (address) {\r\n\r\n        return address(uint160(account));\r\n    }\r\n\r\n    function sendValue(address payable recipient, uint256 amount) internal {\r\n\r\n        require(address(this).balance >= amount, \"Address: insufficient balance\");\r\n\r\n        // solhint-disable-next-line avoid-low-level-calls, avoid-call-value\r\n        (bool success, ) = recipient.call{ value: amount }(\"\");\r\n        require(success, \"Address: unable to send value, recipient may have reverted\");\r\n    }\r\n}\r\n\r\n\r\nlibrary SafeERC20 {\r\n\r\n    using SafeMath for uint256;\r\n    using Address for address;\r\n\r\n    function safeTransfer(IERC20 token, address to, uint256 value) internal {\r\n\r\n        callOptionalReturn(token, abi.encodeWithSelector(token.transfer.selector, to, value));\r\n    }\r\n\r\n    function safeTransferFrom(IERC20 token, address from, address to, uint256 value) internal {\r\n\r\n        callOptionalReturn(token, abi.encodeWithSelector(token.transferFrom.selector, from, to, value));\r\n    }\r\n\r\n    function safeApprove(IERC20 token, address spender, uint256 value) internal {\r\n\r\n        require((value == 0) || (token.allowance(address(this), spender) == 0),\r\n            \"SafeERC20: approve from non-zero to non-zero allowance\"\r\n        );\r\n        callOptionalReturn(token, abi.encodeWithSelector(token.approve.selector, spender, value));\r\n    }\r\n\r\n    function safeIncreaseAllowance(IERC20 token, address spender, uint256 value) internal {\r\n\r\n        uint256 newAllowance = token.allowance(address(this), spender).add(value);\r\n        callOptionalReturn(token, abi.encodeWithSelector(token.approve.selector, spender, newAllowance));\r\n    }\r\n\r\n    function safeDecreaseAllowance(IERC20 token, address spender, uint256 value) internal {\r\n\r\n        uint256 newAllowance = token.allowance(address(this), spender).sub(value, \"SafeERC20: decreased allowance below zero\");\r\n        callOptionalReturn(token, abi.encodeWithSelector(token.approve.selector, spender, newAllowance));\r\n    }\r\n\r\n    function callOptionalReturn(IERC20 token, bytes memory data) private {\r\n\r\n        require(address(token).isContract(), \"SafeERC20: call to non-contract\");\r\n\r\n        (bool success, bytes memory returndata) = address(token).call(data);\r\n        require(success, \"SafeERC20: low-level call failed\");\r\n\r\n        if (returndata.length > 0) { // Return data is optional\r\n\r\n            require(abi.decode(returndata, (bool)), \"SafeERC20: ERC20 operation did not succeed\");\r\n        }\r\n    }\r\n}\r\n\r\n\r\nabstract contract ReentrancyGuard {\r\n\r\n    bool private _notEntered;\r\n\r\n    constructor () {\r\n\r\n        _notEntered = true;\r\n    }\r\n\r\n    modifier nonReentrant() {\r\n\r\n        require(_notEntered, \"ReentrancyGuard: reentrant call\");\r\n\r\n        _notEntered = false;\r\n        _;\r\n        _notEntered = true;\r\n    }\r\n}\r\n\r\n\r\nlibrary SafeMath {\r\n\r\n    function add(uint256 a, uint256 b) internal pure returns (uint256) {\r\n\r\n        uint256 c = a + b;\r\n        require(c >= a, \"SafeMath: addition overflow\");\r\n\r\n        return c;\r\n    }\r\n\r\n    function sub(uint256 a, uint256 b) internal pure returns (uint256) {\r\n\r\n        return sub(a, b, \"SafeMath: subtraction overflow\");\r\n    }\r\n\r\n    function sub(uint256 a, uint256 b, string memory errorMessage) internal pure returns (uint256) {\r\n\r\n        require(b <= a, errorMessage);\r\n        uint256 c = a - b;\r\n\r\n        return c;\r\n    }\r\n\r\n    function mul(uint256 a, uint256 b) internal pure returns (uint256) {\r\n\r\n        if (a == 0) {\r\n            return 0;\r\n        }\r\n\r\n        uint256 c = a * b;\r\n        require(c / a == b, \"SafeMath: multiplication overflow\");\r\n\r\n        return c;\r\n    }\r\n\r\n    function div(uint256 a, uint256 b) internal pure returns (uint256) {\r\n\r\n        return div(a, b, \"SafeMath: division by zero\");\r\n    }\r\n\r\n    function div(uint256 a, uint256 b, string memory errorMessage) internal pure returns (uint256) {\r\n\r\n        require(b > 0, errorMessage);\r\n        uint256 c = a / b;\r\n\r\n        return c;\r\n    }\r\n\r\n    function mod(uint256 a, uint256 b) internal pure returns (uint256) {\r\n\r\n        return mod(a, b, \"SafeMath: modulo by zero\");\r\n    }\r\n\r\n    function mod(uint256 a, uint256 b, string memory errorMessage) internal pure returns (uint256) {\r\n\r\n        require(b != 0, errorMessage);\r\n        return a % b;\r\n    }\r\n}\r\n\r\n\r\ninterface IERC20 {\r\n\r\n    function totalSupply() external view returns (uint256);\r\n    function balanceOf(address account) external view returns (uint256);\r\n    function transfer(address recipient, uint256 amount) external returns (bool);\r\n    function allowance(address owner, address spender) external view returns (uint256);\r\n    function approve(address spender, uint256 amount) external returns (bool);\r\n    function transferFrom(address sender, address recipient, uint256 amount) external returns (bool);\r\n\r\n    event Transfer(address indexed from, address indexed to, uint256 value);\r\n    event Approval(address indexed owner, address indexed spender, uint256 value);\r\n}\r\n\r\n\r\n\r\ncontract REALESTATE_PreSale is ReentrancyGuard, Context, Ownable {\r\n\r\n    using SafeMath for uint256;\r\n    using SafeERC20 for IERC20;\r\n\r\n    IERC20 private _token;\r\n    address private _wallet;\r\n\r\n    uint256 private _rate;\r\n    uint256 private _weiRaised;\r\n    uint256 public endICO;\r\n\r\n    uint public minPurchase;\r\n    uint public maxPurchase;\r\n    uint public availableTokensICO;\r\n\r\n    mapping (address => bool) Claimed;\r\n    mapping (address => uint256) valDrop;\r\n\r\n    event TokensPurchased(address indexed purchaser, address indexed beneficiary, uint256 value, uint256 amount);\r\n    event DropSent(address[]  receiver, uint256[]  amount);\r\n    event AirdropClaimed(address receiver, uint256 amount);\r\n    event WhitelistSetted(address[] recipient, uint256[] amount);\r\n\r\n    constructor (uint256 rate, address wallet, IERC20 token) {\r\n\r\n        require(rate > 0, \"Pre-Sale: rate is 0\");\r\n        require(wallet != address(0), \"Pre-Sale: wallet is the zero address\");\r\n        require(address(token) != address(0), \"Pre-Sale: token is the zero address\");\r\n\r\n        _rate = rate;\r\n        _wallet = wallet;\r\n        _token = token;\r\n    }\r\n\r\n\r\n    receive() external payable {\r\n\r\n        if(endICO > 0 && block.timestamp < endICO){\r\n            buyTokens(_msgSender());\r\n        }\r\n        else{\r\n            revert('Pre-Sale is closed');\r\n        }\r\n    }\r\n\r\n    //Start Pre-Sale\r\n    function startICO(uint endDate, uint _minPurchase, uint _maxPurchase, uint _availableTokens) external onlyOwner icoNotActive() {\r\n\r\n        require(endDate > block.timestamp, 'duration should be > 0');\r\n        require(_availableTokens > 0 && _availableTokens <= _token.totalSupply(), 'availableTokens should be > 0 and <= totalSupply');\r\n        require(_minPurchase > 0, '_minPurchase should > 0');\r\n\r\n        endICO = endDate;\r\n        availableTokensICO = _availableTokens;\r\n        minPurchase = _minPurchase;\r\n        maxPurchase = _maxPurchase;\r\n    }\r\n\r\n    function stopICO() external onlyOwner icoActive(){\r\n        endICO = 0;\r\n    }\r\n\r\n\r\n    //Pre-Sale\r\n    function buyTokens(address beneficiary) public nonReentrant icoActive payable {\r\n\r\n        uint256 weiAmount = msg.value;\r\n        _preValidatePurchase(beneficiary, weiAmount);\r\n\r\n        uint256 tokens = _getTokenAmount(weiAmount);\r\n\r\n        _weiRaised = _weiRaised.add(weiAmount);\r\n        availableTokensICO = availableTokensICO - tokens;\r\n        _processPurchase(beneficiary, tokens);\r\n\r\n        emit TokensPurchased(_msgSender(), beneficiary, weiAmount, tokens);\r\n        _forwardFunds();\r\n    }\r\n\r\n    function _preValidatePurchase(address beneficiary, uint256 weiAmount) internal view {\r\n\r\n        require(beneficiary != address(0), \"Crowdsale: beneficiary is the zero address\");\r\n        require(weiAmount != 0, \"Crowdsale: weiAmount is 0\");\r\n        require(weiAmount >= minPurchase, 'have to send at least: minPurchase');\r\n        require(weiAmount <= maxPurchase, 'have to send max: maxPurchase');\r\n\r\n        this; // silence state mutability warning without generating bytecode - see https://github.com/ethereum/solidity/issues/2691\r\n    }\r\n\r\n    function _deliverTokens(address beneficiary, uint256 tokenAmount) internal {\r\n\r\n        _token.transfer(beneficiary, tokenAmount);\r\n    }\r\n\r\n\r\n    function _processPurchase(address beneficiary, uint256 tokenAmount) internal {\r\n\r\n        _deliverTokens(beneficiary, tokenAmount);\r\n    }\r\n\r\n\r\n    function _getTokenAmount(uint256 weiAmount) internal view returns (uint256) {\r\n\r\n        return weiAmount.mul(_rate).div(100000);\r\n    }\r\n\r\n    function _forwardFunds() internal {\r\n\r\n        payable(_wallet).transfer(msg.value);\r\n    }\r\n\r\n     function withdraw() external onlyOwner {\r\n\r\n        require(address(this).balance > 0, 'Contract has no money');\r\n        payable(_wallet).transfer(address(this).balance);\r\n    }\r\n\r\n    function getToken() public view returns (IERC20) {\r\n\r\n        return _token;\r\n    }\r\n\r\n\r\n    function getWallet() public view returns (address) {\r\n\r\n        return _wallet;\r\n    }\r\n\r\n\r\n    function getRate() public view returns (uint256) {\r\n\r\n        return _rate;\r\n    }\r\n\r\n    function setRate(uint256 newRate) public onlyOwner {\r\n\r\n        _rate = newRate;\r\n    }\r\n\r\n    function setAvailableTokens(uint256 amount) public onlyOwner {\r\n\r\n        availableTokensICO = amount;\r\n    }\r\n\r\n    function weiRaised() public view returns (uint256) {\r\n\r\n        return _weiRaised;\r\n    }\r\n\r\n    modifier icoActive() {\r\n\r\n        require(endICO > 0 && block.timestamp < endICO && availableTokensICO > 0, \"ICO must be active\");\r\n        _;\r\n    }\r\n\r\n    modifier icoNotActive() {\r\n\r\n        require(endICO < block.timestamp, 'ICO should not be active');\r\n        _;\r\n    }\r\n\r\n}\r\n",
  "sourcePath": "F:\\OngoingJobs\\00.Cory\\Real-Estate-Presale\\contracts\\REAL-ESTATE-Presale.sol",
  "compiler": {
    "name": "solc",
    "version": "0.8.6+commit.11564f7e.Emscripten.clang"
  },
  "schemaVersion": "3.4.2",
  "updatedAt": "2021-07-28T17:59:15.989Z",
  "devdoc": {
    "kind": "dev",
    "methods": {},
    "version": 1
  },
  "userdoc": {
    "kind": "user",
    "methods": {},
    "version": 1
  }
}